:020000040800F2
:10000000880C002091010008E1210008DD1C000897
:10001000DD210008D50300080D23000800000000C2
:10002000000000000000000000000000E9210008BE
:100030001D04000800000000E5210008ED21000873
:10004000AB010008AB010008AB010008AB010008E0
:10005000AB010008AB010008AB010008AB010008D0
:10006000AB010008AB010008AB010008AB010008C0
:10007000AB010008AB010008AB010008AB010008B0
:10008000AB010008AB010008AB010008AB010008A0
:10009000AB010008AB010008AB010008AB01000890
:1000A000AB010008AB010008AB010008AB01000880
:1000B000AB010008AB010008AB010008AB01000870
:1000C000AB010008AB010008AB010008AB01000860
:1000D000AB010008AB010008AB01000801230008D8
:1000E000AB010008AB010008AB01000800F002F80A
:1000F00000F03FF80AA090E8000C82448344AAF183
:100100000107DA4501D100F034F8AFF2090EBAE880
:100110000F0013F0010F18BFFB1A43F0010318473B
:10012000A45D0000C45D0000103A24BF78C878C107
:10013000FAD8520724BF30C830C144BF04680C60ED
:10014000704700000023002400250026103A28BF35
:1001500078C1FBD8520728BF30C148BF0B60704739
:10016000642900F03580002070471FB51FBD10B511
:1001700010BD00F0F4F81146FFF7F7FF02F076FA31
:1001800000F012F903B4FFF7F2FF03BC00F01AF914
:100190000948804709480047FEE7FEE7FEE7FEE71B
:1001A000FEE7FEE7FEE7FEE7FEE7FEE70448054957
:1001B000054A064B70470000F1210008ED000008D9
:1001C00088060020880C002088080020880800206D
:1001D0002DE9F0410646002410687529314616A520
:1001E00010D0AFF30080002802DA404213A507E0E8
:1001F00031688A0701D512A502E0490704D511A587
:10020000012401E0AFF3008000210A2206F1240757
:1002100009E0B0FBF2FCB0FBF2F302FB1C00303053
:1002200078541846491C0028F3D123462A46304604
:10023000BDE8F04100F03AB8000000002D000000D9
:100240002B0000002000000002F0FF0343EA03221D
:1002500042EA024200F002B84FF0000200B5134635
:1002600094469646203922BFA0E80C50A0E80C50D6
:10027000B1F12001BFF4F7AF090728BFA0E80C5087
:1002800048BF0CC05DF804EB890028BF40F8042B80
:1002900008BF704748BF20F8022B11F0804F18BFED
:1002A00000F8012B70477047704770472DE9F04701
:1002B0000D4699469246044600F1240801688806D6
:1002C00004D5E06921F01001216000E00120A8427E
:1002D00001DD471B00E00027A1697A1902EB090044
:1002E000081AA0612078C00602D42046AFF300802F
:1002F000002608E0D4E901211AF806009047206A98
:10030000401C761C20624E45F4DB2078C0060AD5DE
:100310002046AFF3008006E0D4E901213020904769
:10032000206A401C2062381EA7F10107F4DC07E0B8
:10033000D4E9012118F805009047206A401C20628A
:10034000281EA5F10105F3DC2046AFF300802078DC
:10035000000602D50220BDE8F0870120FBE77546C4
:1003600000F02CF8AE4605006946534620F0070021
:10037000854618B020B5FFF719FFBDE820404FF0C3
:1003800000064FF000074FF000084FF0000BAC469E
:10039000ACE8C009ACE8C009ACE8C009ACE8C009E9
:1003A00021F007018D46704710B50446AFF3008079
:1003B0002046BDE81040FFF7E5BE0000004870474A
:1003C0005000002001491820ABBEFEE726000200C5
:1003D00070470000FEE700004EF6FC50CEF2000031
:1003E000016821F080710160016841F08071016055
:1003F00041F20000CEF20000016821F0010101602D
:10040000016841F0010101600021416000BF00BFAF
:1004100000BF4068B0FA80F04009704770470000A4
:100420004FF0000CC0F800C00273C38081607047B9
:1004300080B50388B0F802E0734503D100218180C4
:10044000084680BD037BFBB14FF0FF33D0F808C0F6
:100450001FFA8EF21CF802C0CA1882F801C0B0F868
:1004600002C0C2880CF1010C013A02EA0C0EB0F88D
:1004700004C0A0F802E0ACF1010290F80CC0828048
:100480009A1C01336245E1D3012080BDB0B5027BE7
:1004900032B304884FF0FF33CA1892F801C0826863
:1004A000A4B202F804C00288B0F806C00132ACF170
:1004B00001041440828890F80CE09D1C0132013345
:1004C000754504808280E7D391B2614505D34188A8
:1004D000ACF101027144114041800120B0BD00BF68
:1004E0008288B0F806C04FF0000E91B26145F4D397
:1004F000EDE70000014690F82100022816D10868B7
:10050000D1E90FC3026822F00E020260026822F0F5
:1005100001020260012000FA03F2CCF8042081F805
:1005200021000020002281F82020704704208863E9
:100530000120002281F820207047000080B590F84B
:100540002110022924D10268116821F00E011160E6
:100550002F211368C4F202018A4240F20401C4F25E
:10056000020123F00103136016DD3023C4F20203FD
:100570009A421DD04423C4F202039A421CD058234D
:10058000C4F202039A421DD14FF4803322E000BF2F
:1005900004218163012080BD0823C4F202039A4232
:1005A0000ED01C23C4F202039A420BD1102311E097
:1005B0004FF480730EE000BF4FF480530AE000BF99
:1005C000012307E001F1680C4FF08073624508BF1A
:1005D0004FF480130B60012180F82110426B002141
:1005E00080F820100AB190470021084680BD000025
:1005F000B0B5044600F02AF9054640F20000C2F208
:1006000000000078611C18BF044400BF00F01EF910
:10061000401BA042FAD3B0BD2DE9F04F82B00E6866
:10062000002E00F0038141F20042C4F201020423D3
:1006300040F2004E904208BF03234FF6FF7CC4F205
:10064000010E009300240123C1F2100C4FF0000AA8
:100650004FF0000949E000BF012704F00C030F220E
:100660009A402BEA020207FA03F34FEA9A051A436B
:1006700046F82520D1F804B040F20C455FEACB22C1
:10068000DEF8082054BF22EA080242EA0802C4F257
:100690000105CEF808202A685FEA8B2354BF22EABE
:1006A000080242EA08022A605FEA8B33DEF804207F
:1006B00054BF22EA080242EA08025FEACB33CEF8CE
:1006C0000420DEF800204FF0010354BF22EA0802A4
:1006D00042EA0802CEF800200E680AF1010A36FA52
:1006E0000AF204F1040400F0A18003FA0AF816EA01
:1006F000080FF1D04E68664512DC122E56D8DFE89E
:1007000006F0350B454955555555555555555555D3
:100710005555554D510000BFD1F80C9046E000BF33
:100720004FF6FF72C1F2210296420FDC0022C1F2A5
:10073000110296421AD00022C1F21202964215D03E
:100740000022C1F22102964210D02FE00022C1F215
:10075000220296420AD00022C1F23102964205D00E
:100760000022C1F23202964220D100BF8A684AB10B
:10077000012A14BFC0F81480C0F810804FF0080997
:1007800014E000BF4FF0040910E000BFCA6802F196
:1007900008090BE04FF0000908E000BFCA6802F149
:1007A000040903E0CA6802F10C0900BF22460646AC
:1007B000BAF1080F24BF203A043637680F25954058
:1007C00027EA050509FA02F22A433260CA79D206FD
:1007D0007FF582AF41F21803C4F202031A68AEF546
:1007E0007E7642F001021A601A6802F0010201925C
:1007F000019A2AF0030256F802B040F60002C4F251
:100800000102904210D040F60042C4F20102904230
:100810003FF422AF41F20002C4F20102009F904275
:1008200008BF022719E700BF002716E702B0BDE89E
:10083000F08F00008068084018BF0120704700005A
:10084000002A08BF090401617047000040F280607F
:10085000C2F200000068704770B5B8B3044690F863
:100860003D0028B9002084F83C00204600F05CF9E7
:10087000242084F83D002068016821F00101016016
:10088000016841F400410160016821F40041016008
:1008900000F01AFB48F28041C0F21E0140F600133E
:1008A000D4F804E088424FF00001C0F23D0348F262
:1008B000A16C4FF0000238BF01219842C0F2010C38
:1008C00038BF0122E64538BF0A460AB1012070BD93
:1008D0004DF68361C4F21B31A0FB01122168950C17
:1008E0004B684FF4967623F03F0343EA92437543F7
:1008F00044F6D3564B60C1F262060B6AA5FB06565E
:10090000B50923F03F03E64538BF950C6A1C1A432E
:100910000A62CA6948F2A0664CF6FF73C0F201068B
:10092000B64522EA03020BD801384FEA4E03B0FB6A
:10093000F3F001306FF31F30042898BF04201EE04D
:10094000A368013863B119230EFB03F3B0FBF3F086
:1009500001306FF31F3078B100F5804008E000BF30
:100960000EEB4E03B0FBF3F001306FF31F3028B1F4
:1009700000F5004003E000BF012000E0012010432B
:10098000C8610868D4E9072320F0C0001043184369
:100990000860886848F2FF3204F10C0690434CCEA0
:1009A00018431043A5698860C86820F0FF003043F1
:1009B0002843C860086840F001000860002020213A
:1009C000206484F83D10206384F83E0070BD000070
:1009D0002DE9F04383B0994616460F460446FFF7CB
:1009E00035FF94F83D10202920D10546206800BF2E
:1009F0008169890716D5FFF729FF411B20681A294D
:100A0000F6D381698907F3D500202021206384F87B
:100A10003D1084F83E00216C41F02001216484F8EF
:100A20003C0003E094F83C10012903D1022003B0FC
:100A3000BDE8F083012284F83C200368DDE90B184F
:100A40000A9ADB0703D1036843F0010303600368DC
:100A500023F400630360212084F83D00402084F8E3
:100A60003E000020206462626185608D39462085E9
:100A70000020CFF6FF70E062204632464B46CDF8AC
:100A80000080019501F02CF920B1012003B0BDE8F0
:100A9000F08300BF208D98B9204641462A4601F0D8
:100AA00083F988B3206C0428EFD12068016841F4F1
:100AB00000710160012003B0BDE8F0830004EBD0B9
:100AC000204641462A4601F029FB0028EAD1616A06
:100AD0002268084610F8013B1361238D6062581E9E
:100AE0002085678D013F678557697F07E6D5070435
:100AF000E4D048781061881C6062981E2085618D62
:100B000001396185DAE700BF2068016841F40071AE
:100B10000160202084F83D00002084F83E0084F825
:100B20003C0003B0BDE8F08310B586B045F200414B
:100B30000068C4F2000100228842049202D006B08C
:100B400010BD00BF41F21804C4F20204206840F056
:100B500008002060206800F0080001900198C02083
:100B60000290122003900320059001F5384002A95D
:100B7000FFF752FD606840F400106060606800F4A8
:100B800000100190019806B010BD000040F2000076
:100B900040F28061C2F20000C2F2000100780A68EF
:100BA000104408607047000080B542F20000C4F2B3
:100BB0000200016841F010010160032000F08EF88E
:100BC000002000F005F800F027F8002080BD0000AC
:100BD00070B540F20006C2F2000640F248013278D9
:100BE000C2F200014FF47A730968B3FBF2F20446D3
:100BF000B1FBF2F1084600F069FB0F2C4FF0010544
:100C000008D838B94FF0FF3021460022002500F007
:100C100039F87460284670BD82B041F21800C4F201
:100C200002000168022241F001010160016801F047
:100C3000010101910199416841F080514160406892
:100C400000F08050009000980420C4F20100016878
:100C500062F31A61016002B070470000002848BFCB
:100C60007047C1B200F01F00012202FA00F04EF2FC
:100C70000012CEF2000242EAD10121F00301086025
:100C80007047000010B54EF60C5CCEF2000CDCF89C
:100C90000030C3F3022E8EF00704042C28BF042476
:100CA000BEF103034FF0FF3E0EFA04F438BF0023F9
:100CB000A14399400EFA03F39A43114300F00F0247
:100CC00000F160430901043A03F5644362440028DB
:100CD00048BF02F10C03197010BD00004EF60C5114
:100CE000CEF200010A684FF6FF031A4060F30A22B1
:100CF00042F0806040F0FD70086070472DE9F043DD
:100D000081B0002800F0858042F20008C4F2020899
:100D10000446D8F800000D4600F0070088420CD2C7
:100D2000D8F8000020F007002843C8F80000D8F8E1
:100D3000000000F00700A8426BD1206841F20409CE
:100D40008107C4F2020917D5410705D5D9F800106B
:100D500041F4E061C9F80010010705D5D9F8001089
:100D600041F46051C9F80010D9F80010A26821F0D0
:100D7000F0011143C9F80010C00741D1D8F80000B4
:100D800000F00700A8420CD9D8F8000020F00700B6
:100D90002843C8F80000D8F8000000F00700A84277
:100DA00037D12068410707D5D9F80010E26821F44F
:100DB000E0611143C9F80010000708D5D9F8000018
:100DC000216920F4605040EAC100C9F80000D9F858
:100DD000002002F00C00082841F20020C0F27A0046
:100DE00050D145F6B263C2F38341C0F60003595CAB
:100DF000D2033BD440F60010C0F23D00484341E02E
:100E0000606802280AD001282AD159F8041C8903F5
:100E100008D4012001B0BDE8F08300BF59F8041CDC
:100E20008901F6D5D9F8001021F003010843C9F86B
:100E30000000FFF70BFD064641F28837D9F80000A5
:100E4000616800F00C00B0EB810F97D0FFF7FEFC5B
:100E5000801BB842F2D9032001B0BDE8F08300BF87
:100E600059F8041C8907D4D5DCE700BFD9F8002065
:100E700045F6B063C2F34042C0F600039A5C4843B3
:100E8000B0FBF2F0D9F8001043F28462C1F3031111
:100E9000C0F60002515C40F2480220FA01F140F233
:100EA0000400C2F200000068C2F200021160FFF705
:100EB0008FFE002001B0BDE8F083000040F2480042
:100EC000C2F200000068704740F2480041F204019D
:100ED000C2F20000C4F202010068096843F29462A1
:100EE000C1F30221C0F60002515CC8407047000007
:100EF00040F2480041F20401C2F20000C4F20201D3
:100F00000068096843F29462C1F3C221C0F600028E
:100F1000515CC840704700002DE9F04182B00028C4
:100F200068D00446007841F20006C007C4F2020609
:100F300025D0706800F00C0004281BD0706800F009
:100F40000C00082802D17068C00313D46068002820
:100F500000F06881B0F5A02F00F07C81B0F5803FF3
:100F600000F07C81306820F480303060306820F4FC
:100F7000802076E13068800301D56068D0B32078A6
:100F8000800718D5706810F00C0F07D0706800F05B
:100F90000C0008286ED17068C0036BD430688007DD
:100FA00002D52069012825D13068616920F0F80058
:100FB00040EAC1003060207800071FD42078400745
:100FC00032D4E56995B1706800F00C00082840F053
:100FD0008F80012D0ED07068216A00F480328A4221
:100FE00008D1616A00F47010884203D1002002B079
:100FF000BDE8F081012002B0BDE8F081A0690028C1
:1010000062D00020C4F242200121C0F88014FFF712
:101010001DFC0546706A800700F18C80FFF716FC06
:10102000401B0228F6D92AE1F06910F0805808D157
:10103000F06940F08050F061F06900F0805000905D
:10104000009847F20007C4F200073868C00529D4A9
:10105000386840F480703860FFF7F8FB054600BF41
:101060003868C0051ED4FFF7F1FB401B6428F7D990
:1010700005E100BF2069002840F20000C4F24220D0
:1010800000F0828001210160FFF7E0FB054600BF10
:10109000306880073FF588AFFFF7D8FB401B022878
:1010A000F6D9ECE0E068002800F08080052800F028
:1010B0009780012800F09880306A20F001003062AB
:1010C000306A20F0040092E00020C4F242200021A7
:1010D000C0F88014FFF7BAFB054600BF706A8007AE
:1010E0007FF56CAFFFF7B2FB401B0228F6D9C6E0D4
:1010F0000027C4F2422700203866FFF7A7FB022D25
:1011000005460BD13068800140F1BE80FFF79EFBA1
:10111000401B02284FF00300F4D968E730688001D3
:101120007FF564AFFFF792FB401B02284FF00300EE
:10113000F4D95CE740F24800C2F20000006844F6CF
:10114000D351C1F26201A0FB0101480A019000BF26
:1011500000BF0198411E002801913FF42FAF00BF4E
:101160000198411E002801913FF428AF00BF01986B
:10117000411E002801913FF421AF00BF0198411E9C
:1011800000280191E4D119E700210160FFF75EFB1F
:10119000054600BF306880077FF50DAFFFF756FBAF
:1011A000401B02284FF00300F4D920E7306A20F0FA
:1011B00001003062306A20F004003062FFF746FB25
:1011C000054641F2883700BF306A800720D5FFF717
:1011D0003DFB401BB8424FF00300F5D907E700BFC5
:1011E000306A40F004003062306A40F00100306242
:1011F000FFF72CFB054641F2883700BF306A8007B5
:1012000006D4FFF723FB401BB842F7D937E000BFF5
:10121000B8F1000F7FF4D5AEF06920F08050F06196
:10122000CFE600BF306820F480303060306820F4B2
:1012300080203060FFF70AFB054600BF306880035E
:101240007FF59DAEFFF702FB401B64284FF00300C3
:10125000F4D9CCE6306840F480203060306840F447
:1012600080303060FFF7F2FA054600BF3068800337
:101270003FF585AEFFF7EAFA401B6428F6D9032054
:1012800002B0BDE8F08100BF206AB0F5803F05D113
:101290007168A26821F40031114371607168626A5B
:1012A00021F4741111430843706001203866FFF780
:1012B000CDFA0446306880013FF598AEFFF7C6FAD4
:1012C000001B02284FF00300F4D990E6411E0020D5
:1012D000B0EB116F1CBF012070474EF21002CEF22E
:1012E000000251604EF62351CEF20001F0230B7044
:1012F0000721906011607047704700007047000040
:10130000B0B582B0044600680168C368426901F064
:101310002F05202D03F0200506D12DB1204602B067
:10132000BDE8B04000F06CBF5FEA017C1EBF02F078
:10133000010E03F4907212EB0E0253D1226B012ABC
:1013400005D111F0100218BF13F0100236D10A06B1
:1013500022D513F080021FD094F8411021293FD1EB
:10136000A168B1F5805F03D12169002900F0708286
:10137000216A4A1C226209784160E18C01390A0421
:10138000E1842DD1C16821F08001C160C16841F0C4
:101390004001C16002B0B0BD490621D513F0400143
:1013A0001ED0C16821F04001C1602021204684F890
:1013B000411002B0BDE8B04000F08EBC00210191A8
:1013C000016801914168019101994069400613D477
:1013D000A08DE18DE28D002A18BF884240F0BA81CD
:1013E00002B0B0BDCA0718BF13F4807240F0B680D7
:1013F0004A0700F1B980BEE0E06B016849688AB233
:10140000002AEDD0A38D9A42EAD2E1858069202896
:1014100000F09C80206850E8030F216820F4807061
:1014200041E80302DAB1206850E8030F216820F494
:10143000807041E8030292B1206850E8030F2168F0
:1014400020F4807041E803024AB1206850E8030F9D
:10145000216820F4807041E80302002ADAD1206874
:1014600050E8050F216820F0010041E80502DAB1DB
:10147000206850E8050F216820F0010041E80502CE
:1014800092B1206850E8050F216820F0010041E882
:1014900005024AB1206850E8050F216820F00100DC
:1014A00041E80502002ADAD1206850E8050F2168DA
:1014B00020F0400041E80502DAB1206850E8050F4D
:1014C000216820F0400041E8050292B1206850E810
:1014D000050F216820F0400041E805024AB120686C
:1014E00050E8050F216820F0400041E80502002A7D
:1014F000DAD1202084F8420000202063206850E8E0
:10150000030F216820F0100041E80302DAB12068DF
:1015100050E8030F216820F0100041E8030292B167
:10152000206850E8030F216820F0100041E8030212
:101530004AB1206850E8030F216820F0100041E80C
:101540000302002ADAD1E06BFEF7D4FF02206063C9
:10155000A08DE18D401A81B2204674E1626C42F0A8
:10156000010262644A0706D5BEF1000F03D0626C27
:1015700042F0020262648A0706D5BEF1000F03D072
:10158000626C42F004026264BCF1000F09D545EAC6
:101590000E02B2FA82F2520903D1626C42F00802E2
:1015A0006264626C002A3FF41BAF11F0200118BF87
:1015B000002D03D0204600F023FE20684069616CB6
:1015C00000F0400001F00801401800F0B58000BFB5
:1015D000206850E8030F216820F4907041E803026E
:1015E000BAB3206850E8030F216820F4907041E8F6
:1015F000030272B3206850E8030F216820F4907052
:1016000041E803022AB3206850E8030F216820F460
:10161000907041E80302002ADAD11AE0206850E80D
:10162000050F216820F0010041E80502DAB12068C9
:1016300050E8050F216820F0010041E8050292B151
:10164000206850E8050F216820F0010041E80502FC
:101650004AB1206850E8050F216820F0010041E8F8
:101660000502002ADAD1206B012824D1206850E835
:10167000030F216820F0100041E80302DAB120686E
:1016800050E8030F216820F0100041E8030292B1F6
:10169000206850E8030F216820F0100041E80302A1
:1016A0004AB1206850E8030F216820F0100041E89B
:1016B0000302002ADAD1202084F8420000202063AF
:1016C0002068406940063FD5206850E8050F216832
:1016D00020F0400041E80502DAB1206850E8050F2B
:1016E000216820F0400041E8050292B1206850E8EE
:1016F000050F216820F0400041E805024AB120684A
:1017000050E8050F216820F0400041E80502002A5A
:10171000DAD1E06BC0B142F2F511C0F600014163CD
:10172000FEF70CFF00283FF45BAEE06B416B02B0AC
:10173000BDE8B040084700BF2046FFF7DFFD0020AE
:10174000606402B0B0BD00BF204602B0BDE8B0404A
:10175000FFF7D4BD401A216851E8031F226821F425
:10176000907142E80313DBB1216851E8031F22683E
:1017700021F4907142E8031393B1216851E8031FEB
:10178000226821F4907142E803134BB1216851E8BB
:10179000031F226821F4907142E80313002BDAD171
:1017A000216851E8051F226821F0010142E8051374
:1017B000DBB1216851E8051F226821F0010142E8F0
:1017C000051393B1216851E8051F226821F001013A
:1017D00042E805134BB1216851E8051F226821F04A
:1017E000010142E80513002BDAD1202184F84210D0
:1017F00000212163216851E8031F226821F01001B4
:1018000042E80313DBB1216851E8031F226821F08D
:10181000100142E8031393B1216851E8031F2268C5
:1018200021F0100142E803134BB1216851E8031F76
:10183000226821F0100142E80313002BDAD10222C2
:1018400081B22046626302B0BDE8B040FFF754BDEC
:10185000216A31F8022B6FF35F22426021628CE52E
:10186000002804BF0120704710B5044690F84100DD
:1018700028B9002084F84000204600F063F82420B6
:1018800084F841002068D4E90212C36823F40053AD
:10189000C360036923F440531A430261D4E904236B
:1018A0001143C268194341F20C639A431143C1606A
:1018B0004169A26921F44071114343F60002C4F268
:1018C00001029042416103D0FFF7FEFA02E000BF3F
:1018D000FFF70EFB6268192148439100B0FBF1F05D
:1018E00048F21F51C5F2EB11A0FB01235A094FF634
:1018F0009C73C0F6FF7302FB0300322303EB00105E
:10190000A0FB0101F02303EA5113206803EB02124C
:10191000C1F3431111448160016921F490410161D7
:10192000416921F02A014161C16841F40051C1605F
:1019300000202021606484F8411084F84210606324
:1019400010BD000070B586B040F60044C4F201043A
:101950000068A4F5444100268842049602D006B0EF
:1019600070BD00BF41F21800C4F20200416802AD30
:1019700041F480214160416801F480210191019985
:10198000016841F0080101600068294600F0080084
:10199000019001984FF48060029002200390032090
:1019A00005902046FEF738FE4FF40060CDE90206B0
:1019B000204629460496FEF72FFE2720002100220C
:1019C000FFF760F92720FFF749F906B070BD000066
:1019D00090F84230202B1CBF0220704700294FF0A6
:1019E000010318BF002A01D1184670470023036382
:1019F000816222218285C285436480F84210016998
:101A0000006819B1C16841F48071C1604169002367
:101A100041F001014161C16841F02001C1601846F7
:101A20007047000010B5006844F60001C4F20001E0
:101A3000884218BF10BD40F2B401C2F200014C1C34
:101A400001F11C002146FEF721FD40F23850C2F2A0
:101A5000000021460122BDE81040FFF7B9BF000099
:101A60002DE9F04381B0044690F84100202840F071
:101A7000B180884600294FF0010000F0D68016465C
:101A8000002A00F0D2800020606421201D4684F8E6
:101A90004100FEF7DBFEA684E684A1680646B1F5A8
:101AA000805F03D12069002800F0988047464FF0FE
:101AB0000008E18C2068002900F0968005F10109FA
:101AC0000BE000BF47B317F8011B4160E18C0139FF
:101AD000E184E18C002900F0878001680906F1D4D7
:101AE000B9F1000F0AD0EDB1FEF7B0FE801BA8429D
:101AF00018D8206801680906F6D5E3E701680906E9
:101B0000E0D4016809065CBF01685FEA0161D9D4CD
:101B100001680906F2D5D5E738F8021B00276FF3F4
:101B20005F21D2E7206850E8030F216820F4D070CD
:101B300041E80302BAB3206850E8030F216820F49B
:101B4000D07041E8030272B3206850E8030F2168A7
:101B500020F4D07041E803022AB3206850E8030F54
:101B6000216820F4D07041E80302002ADAD11AE09B
:101B7000206850E8050F216820F0010041E80502C7
:101B8000DAB1206850E8050F216820F0010041E833
:101B9000050292B1206850E8050F216820F001008D
:101BA00041E805024AB1206850E8050F216820F09D
:101BB000010041E80502002ADAD1202084F8410022
:101BC00084F84200002084F84000032001B0BDE802
:101BD000F08300BF022001B0BDE8F0830027E18C54
:101BE000206800297FF46AAF0168490619D4FDB165
:101BF000691C0DD10168490613D4016849065CBF10
:101C000001685FEA41610CD401684906F2D508E039
:101C1000FEF71CFE801BA8420AD820680068400618
:101C2000F6D5202084F84100002001B0BDE8F08303
:101C3000206850E8030F216820F4D07041E80302C7
:101C4000002A3ED0206850E8030F216820F4D070AD
:101C500041E80302AAB3206850E8030F216820F48A
:101C6000D07041E8030262B3206850E8030F216896
:101C700020F4D07041E80302002AD9D121E000BF4E
:101C8000206850E8050F216820F0010041E80502B6
:101C9000002A3FF492AF206850E8050F216820F039
:101CA000010041E80502002A3FF487AF206850E8B0
:101CB000050F216820F0010041E80502002A3FF4E9
:101CC0007CAF206850E8050F216820F0010041E852
:101CD0000502002AD4D170E770470000FEE700003B
:101CE0002DE9F04383B0044600680D4601680A9F61
:101CF0000B9E41F4807199469046016020464FF05A
:101D0000011100223B46009600F0AEF850B1206869
:101D10000068C00544BF4FF400702064032003B086
:101D2000BDE8F083206805F0FE0101610221C0F2E8
:101D3000010120463A46334600F080F920B10120E7
:101D400003B0BDE8F08300BF002002902068324657
:101D5000416902918069394602900298204600F05C
:101D6000DDF958B1206C0428E9D12068016841F4FC
:101D700000710160012003B0BDE8F0832068B9F173
:101D8000010F0AD04FEA1821016120463946324638
:101D900000F0C4F90028E5D120685FFA88F10161FC
:101DA000002003B0BDE8F08370B50368044653F823
:101DB000140F400711D40E46481C29D086BB00BF23
:101DC0001868400527D4FEF741FD236853F8140F27
:101DD000400739D518684007F2D5002070BD00BF14
:101DE00018684007F9D41868400514D418684007EB
:101DF000F3D4186840050ED418684007EDD418686D
:101E0000400508D4186840074FF0000048BF70BD77
:101E100018684005E4D56FF480601860042014E071
:101E2000154603E053F8140F4007D6D41868400550
:101E3000F1D4FEF70BFD401B2368B042F2D958697C
:101E40004007EFD4202000E0202000212022216341
:101E500084F83D2084F83E10226C10432064012059
:101E600084F83C1070BD00002DE9F0410546006883
:101E70001E46144601F47F0201338FB242D0DDF8D2
:101E80001880B2F5803F40F0878040693840C01B21
:101E9000B0FA80F04009A04240F0C8804EB924E07A
:101EA00040693840C01BB0FA80F04009A04240F0C1
:101EB000BD80FEF7CBFCA0EB08012868B142EFD94A
:101EC00041693940C91BB1FA81F14909A142E7D101
:101ED0009BE000BF40693840C01BB0FA80F0400969
:101EE000A0424FF0000040F0A680FEF7AFFC28684B
:101EF00041693940C91BB1FA81F14909A142E9D1CF
:101F000083E000BFB2F5803F24D100BF4169394072
:101F1000C91BB1FA81F14909A14240F087804169AA
:101F20003940C91BB1FA81F14909A14240F07E80D4
:101F300041693940C91BB1FA81F14909A14275D102
:101F400041693940C91BB1FA81F14909A142DDD08B
:101F50006CE000BF81693940C91BB1FA81F14909C0
:101F6000A14263D181693940C91BB1FA81F14909A4
:101F7000A1425BD181693940C91BB1FA81F149099C
:101F8000A14253D181693940C91BB1FA81F1490994
:101F9000A142DFD04AE000BF80693840C01BB0FAE0
:101FA00080F04009A04241D146B923E08069384021
:101FB000C01BB0FA80F04009A0423BD1FEF746FCBE
:101FC000A0EB08012868B142F0D981693940C91BEA
:101FD000B1FA81F14909A142E8D116E0806938409F
:101FE000C01BB0FA80F04009A0424FF0000018BFBB
:101FF000BDE8F081FEF72AFC286881693940C91BD9
:10200000B1FA81F14909A142E8D1002020212863D9
:1020100085F83D1085F83E00296C41F020012964C7
:1020200085F83C000120BDE8F08100BF0020BDE83C
:10203000F08100BF0020BDE8F0810000F0B581B064
:10204000044600681D4643698FB203EA0701B9429E
:1020500002D1002001B0F0BD41691646013201F401
:10206000806125D0002940D1CEB100BFFEF7EEFB44
:10207000411B2068B14203D941693940B9424BD173
:1020800041693940B942E4D041694905EED52CE0B7
:1020900041693940B942DCD04169490525D4FEF790
:1020A000D5FB206841693940B942F1D0202024E0B5
:1020B000D9B941693940B942CBD04169490514D4F5
:1020C00041693940B942C4D0416949050DD44169DB
:1020D0003940B942BDD04169490506D4416939400A
:1020E000B942B6D041694905E3D5016841F40071B0
:1020F00001606FF48061416104200021202221638E
:1021000084F83D2084F83E10226C1043206484F84B
:102110003C10012001B0F0BD2020EEE770B503684F
:10212000044653F8140F000611D40E46481C29D05B
:1021300086BB00BF1868400527D4FEF787FB2368DD
:1021400053F8140F000639D518680006F2D50020A0
:1021500070BD00BF18680006F9D41868400514D493
:1021600018680006F3D4186840050ED418680006F5
:10217000EDD41868400508D4186800064FF0000038
:1021800048BF70BD18684005E4D56FF480601860E2
:10219000042014E0154603E053F8140F0006D6D4CB
:1021A00018684005F1D4FEF751FB401B2368B0428C
:1021B000F2D958690006EFD4202000E02020002149
:1021C0002022216384F83D2084F83E10226C1043C5
:1021D0002064012084F83C1070BD0000FEE7000080
:1021E000FEE700007047000070470000FEF7CEBC1D
:1021F00070470000406A0021C185C184FFF77EB8A6
:1022000081B090F84210222921D183680246B3F5AB
:10221000805F09D152F8281F52F8183C002B63D078
:1022200003685B680AE000BF52F8281F13B903690E
:10223000002BF5D003685B6803F07F030B70116817
:1022400001311160C18D01390A04C18502D001B08C
:10225000704700BF0168CA6822F02002CA60CA68DD
:1022600022F48072CA604A6922F001024A61202188
:1022700080F8421000214163026B012A3CD10163C6
:10228000016851E8031F026821F0100142E80313BE
:10229000DBB1016851E8031F026821F0100142E838
:1022A000031393B1016851E8031F026821F0100184
:1022B00042E803134BB1016851E8031F026821F0A3
:1022C000100142E80313002BDAD101680A68D20634
:1022D00006D5002200920A68009249680091009990
:1022E000818D01B0FFF708B8026852686FF35F2272
:1022F00021F8022B8162A5E701B0FFF793BB000034
:1023000040F23850C2F20000FEF7FABFFEE70000CC
:102310002DE9F04F83B040F60049C4F201090446AC
:1023200041F2040648464FF480510122CEF20006E5
:10233000FEF786FA4DF6836800254FF00A0AC4F2CC
:102340001B384FF0000B13E048464FF40041FEF7F6
:1023500071FACBF3460141EAC01B48464FF4805165
:102360000122FEF76DFA0135082D4FEA54044DD0D5
:1023700004F0010248464FF48041FEF761FACDF8BF
:1023800000A03768FEF79AFDA0FB08010098890CB1
:102390004843009030680099C01B88420ED23068D4
:1023A0000099C01B884209D230680099C01B88423E
:1023B00004D230680099C01B8842EBD348464FF4E2
:1023C00080510022FEF73CFACDF804A03768FEF7F2
:1023D00075FDA0FB08010198890C4843019000BFDE
:1023E00030680199C01B8842AED230680199C01B89
:1023F0008842A9D230680199C01B8842A4D23068B3
:102400000199C01B8842EBD39EE700BF14200290C5
:102410003468FEF753FDA0FB08010298890C48437D
:10242000029000BF30680299001B88420ED23068CB
:102430000299001B884209D230680299001B884229
:1024400004D230680299001B8842EBD35FFA8BF00C
:1024500003B0BDE8F08F00002DE9F041FEF7F6F97A
:1024600040F2E048C2F20008D8F80010401A0B28E9
:1024700038BFBDE8F08140F60004C4F2010404F561
:10248000806528460421FEF7D5F928460821FEF785
:10249000D1F928461021FEF7CDF928462021FEF774
:1024A000C9F928464FF48071FEF7C4F928464FF465
:1024B0000071FEF7BFF904F5006630464FF4804125
:1024C000FEF7B8F930464FF40041FEF7B3F940F299
:1024D0000806C2F20006FF27284601213770FEF7E2
:1024E000A9F928460221FEF7A5F920464FF480718C
:1024F000FEF7A0F920464FF40071FEF79BF9204645
:102500004FF48061FEF796F920464FF40061FEF724
:1025100091F920464FF48051FEF78CF920464FF494
:102520000041FEF787F9204601217770FEF782F916
:1025300020460221FEF77EF920460421FEF77AF9B3
:1025400020460821FEF776F920461021FEF772F9A1
:1025500020462021FEF76EF920464021FEF76AF959
:1025600020468021FEF766F9B770FEF76FF9C8F8CC
:102570000000BDE8F081000041790379FF22322993
:1025800090F803C038BFFD22C82988BFFE22322B35
:10259000114638BF01F0F701C82B88BF02F0FB01DC
:1025A000BCF1C90F02D301F0EF0106E0BCF1310F1D
:1025B0008CBF41F0300101F0DF018078C92822BFD3
:1025C00001F0BF00C0B27047312894BF01F07F0016
:1025D00061F03F00C0B27047F0B581B040F60044F2
:1025E000C4F20104054620464FF400510022FEF7D4
:1025F00027F90120FFF78CFE4220FFF789FE0646EF
:102600000020FFF785FE0020FFF782FE28700020E3
:10261000FFF77EFE522E687004DC122E12D0232E9D
:1026200004D019E0732E01D0532E15D10020FFF7EE
:102630006FFEA8700020FFF76BFE05260427E870E8
:1026400002E000BF032602270020FFF761FEE855E5
:102650000020FFF75DFEA85520464FF400510122EF
:1026600001B0BDE8F040FEF7EBB8000090B0FEF717
:102670009BFA00240120CDE90B44CDE909440690E2
:102680000A904FF4E0104FF4803102250F9006A815
:10269000CDE90714CDE90D51FEF73EFC20B1EFF373
:1026A000108072B6FEE700BF0F20CDE901054FF4A0
:1026B0008060CDE9040401A802210394FEF71EFB0B
:1026C00020B1EFF3108072B6FEE700BF41F21800B0
:1026D000C4F20200016840F6004941F010010160B7
:1026E0000168C4F2010901F0100106910699016820
:1026F00009F5806641F0200101600168002201F0C7
:1027000020010691069901684FF4005441F004013C
:1027100001600168002701F0040106910699016833
:1027200041F00801016000684FF4005100F008001A
:10273000069006983046FEF783F848464FF4E0418D
:1027400000224FF4E048FEF77BF806AD0694012422
:102750004FF0020A30462946CDE90747CDF824A0BC
:10276000FDF75AFF4FF44040CDE9060730462946B1
:102770000894FDF751FF49F6FF70CDE90607A9F56A
:10278000806029460894FDF747FF48F23F30CDE9C5
:102790000607484629460894FDF73EFF4846294665
:1027A000CDE90684CDE9087AFDF736FF40F2E44032
:1027B000A9F53841C2F2000048F2A0624FF480430C
:1027C000C0F2010280E88600C0E90373C0E9057722
:1027D000C0E90777FEF740F820B1EFF3108072B63A
:1027E000FEE700BF40F23850A9F54441C2F20000B4
:1027F0000C234FF4E13280E88600C0E90377C0E99A
:102800000537C761FFF72CF820B1EFF3108072B6DF
:10281000FEE700BF00F004F800F042F8FCE700001B
:1028200010B5FDF7D9FD00F003FC0F200F2100F0DB
:1028300071FD40F23000C2F20000D0E9001215A094
:10284000012300F001FF00F06DFD40F2B404C2F27C
:10285000000440F2805104F11C00C2F20001012288
:102860004FF48073FDF7DCFD40F23850611CC2F27A
:1028700000000122FFF7ACF84FF4FA70FDF7B8FE44
:10288000002000F0C7FB00F04DFDBDE8104000F057
:1028900037BB00BF506F776572204F6E210000007C
:1028A0002DE9F04784B00020CDE90200CDE9000019
:1028B000FFF7D2FDFDF7CAFF40F2B409C2F20009EA
:1028C000D9F8041040F20805401A1E28C2F200058B
:1028D00031D302AC2046FFF77FFE2046FFF74CFEC7
:1028E000044646208DF80000BDF808002978ADF8B0
:1028F0000100B5F801008DF80410ADF80500FF20C7
:102900008DF8070040F23850C2F2000069460822F4
:102910004FF4FA738DF80340FFF7A2F8BDF80100F9
:10292000EC7000BA000CA880012089F80000FDF7C7
:102930008DFFC9F80400FDF789FFD9F80810401A87
:102940002328C0F08F800020494641F80C0FC1F8C1
:102950000B00C1E9010001F11000FDF769FD00283D
:102960007CD009F11C0409F10D0620463146FDF723
:102970005FFD002872D009F10E0720463946FDF7A9
:1029800057FD00286AD099F80C2099F80D1099F895
:102990000E00462A08BF45290CD0442A08BF452905
:1029A0005CD14C285AD1002000F034FB00F0BAFC76
:1029B00054E000BF4528F0D109F10C0820464146FB
:1029C000FDF736FD002849D020463146FDF730FDA1
:1029D000002843D020463946FDF72AFD00283DD087
:1029E00099F80D0099F80E1000EB800001EB400003
:1029F00099F80CA0103800210206C9E90411C9F8A1
:102A00001710C9F80C100AD0C7B246462046314606
:102A1000FDF70EFD10B3013F06F10106F6D10221CC
:102A20000020BAF1320F08BF1C2100F073FC40F205
:102A3000380140F23000C2F20001C2F20000BAF1E7
:102A4000320F01F1040208BF0146096808BF021DE8
:102A500012684046012300F0F7FDA7E7FDF7F6FEF8
:102A6000C9F8080099F80000002800F00D82A96854
:102A70004878C20622D441F20000C4F201004FF4AB
:102A8000005101220124FDF7DBFE99F80200012824
:102A900010D04B20352100F03DFC40F24000C2F246
:102AA0000000D0E900120FF25040012300F0CCFDED
:102AB00000F038FC89F80240E3E100BF420621D46F
:102AC00041F20000C4F201004FF400510122FDF771
:102AD000B7FE99F80200022810D04B20352100F0F3
:102AE00019FC40F24000C2F20000D0E900120FF2DF
:102AF0000040012300F0A8FD00F014FC022089F83A
:102B00000200BEE1820621D441F20000C4F20100BD
:102B10004FF400510122FDF793FE99F802000328BB
:102B200010D04B20352100F0F5FB40F24000C2F2FE
:102B30000000D0E900120FF2B030012300F084FD54
:102B400000F0F0FB032089F802009AE142B2002A6B
:102B500020D441F20000C4F201004FF400510122E0
:102B6000FDF76EFE99F8020004280FD04B203521A6
:102B700000F0D0FB40F24000C2F20000D0E90012A9
:102B8000D7A0012300F060FD00F0CCFB042089F801
:102B9000020076E109784A0720D441F20000C4F22D
:102BA00001004FF400510122FDF74AFE99F802009E
:102BB00005280FD04B20352100F0ACFB40F240003F
:102BC000C2F20000D0E90012C3A0012300F03CFDD6
:102BD00000F0A8FB052089F8020052E1CA0721D1C4
:102BE00041F20000C4F201004FF400510122FDF750
:102BF00027FE99F8020006280FD04B20352100F05F
:102C000089FB40F24000C2F20000D0E90012B0A0FF
:102C1000012300F019FD00F085FB062089F8020071
:102C20002FE100BF0A0721D441F20000C4F20100E5
:102C30004FF400510122FDF703FE99F80200072826
:102C40000FD04B20352100F065FB40F24000C2F26E
:102C50000000D0E900129CA0012300F0F5FC00F078
:102C600061FB072089F802000BE100BF8A0721D42D
:102C700041F20000C4F201004FF400510122FDF7BF
:102C8000DFFD99F8020008280FD04B20352100F015
:102C900041FB40F24000C2F20000D0E9001288A0DF
:102CA000012300F0D1FC00F03DFB082089F8020070
:102CB000E7E000BFC20721D141F20000C4F20100E9
:102CC0004FF400510122FDF7BBFD99F802000928DD
:102CD0000FD04B20352100F01DFB40F24000C2F226
:102CE0000000D0E9001274A0012300F0ADFC00F058
:102CF00019FB092089F80200C3E000BF000721D4B6
:102D000041F20000C4F201004FF400510122FDF72E
:102D100097FD99F802000A280FD04B20352100F0CA
:102D2000F9FA40F24000C2F20000D0E9001260A0BF
:102D3000012300F089FC00F0F5FA0A2089F802006E
:102D40009FE000BF880621D441F20000C4F20100D8
:102D50004FF400510122FDF773FD99F802000B2892
:102D60000FD04B20352100F0D5FA40F24000C2F2DE
:102D70000000D0E900124CA0012300F065FC00F037
:102D8000D1FA0B2089F802007BE000BF48B200288E
:102D900020D441F20000C4F201004FF4005101229E
:102DA000FDF74EFD99F802000C280FD04B2035217D
:102DB00000F0B0FA40F24000C2F20000D0E9001288
:102DC00037A0012300F040FC00F0ACFA0C2089F899
:102DD000020056E0C80641F20000C4F201001DD412
:102DE0004FF400510122FDF72BFD99F802000D2848
:102DF0000FD04B20352100F08DFA40F24000C2F296
:102E00000000D0E9001224A0012300F01DFC00F016
:102E100089FA0D2089F8020033E000BF49061DD46D
:102E20004FF400510122FDF70BFD99F802000E2826
:102E30000FD04B20352100F06DFA40F24000C2F275
:102E40000000D0E9001212A0012300F0FDFB00F009
:102E500069FA0E2089F8020013E000BF2978FF29E3
:102E60000AD16978FF2907D1A978FF2904D14FF445
:102E70000051002203E000BF4FF400510122FDF792
:102E8000DFFC002089F8000004B0BDE8F08700BF37
:102E9000202020202020580054414D474941430024
:102EA000202056554F4E470020202054524F4E00B0
:102EB00020205354415254002053454C4543540064
:102EC00020202020205232002020202020523100BB
:102ED00020202020204C320020202020204C3100B7
:102EE0002020204C45465400202052494748540099
:102EF000202020444F574E002020202020555000F5
:102F000010B540F21404C2F200042046052100F07E
:102F100019F82046052100F015F82046052100F09B
:102F200011F8601D052100F00DF804F10A000921D7
:102F300000F008F804F113000921BDE8104000F08A
:102F400001B800002DE9F04383B040F60048C4F218
:102F500001080D46064641F2040740464FF4005171
:102F60000022CEF20007FDF76BFC102001903C68B8
:102F7000FDF7A4FF4DF68369C4F21B39A0FB0901DC
:102F80000198890C4843019038680199001B8842D8
:102F90000ED238680199001B884209D2386801991D
:102FA000001B884204D238680199001B8842EBD389
:102FB00035B1741E14F8010FFFF7AAF9013DF9D1DC
:102FC000102002903C68FDF779FFA0FB09010298F0
:102FD000890C4843029000BF38680299001B884260
:102FE0000ED238680299001B884209D238680299CB
:102FF000001B884204D238680299001B8842EBD338
:1030000040464FF40051012203B0BDE8F043FDF704
:1030100017BC000080B50246002840F2E000C2F272
:1030200000004FF4806118BFFF22FDF70DF980BD4D
:103030002DE9F04784B06420FDF7DAFA40F2E44469
:10304000AE20C2F200048DF80F00142601270DF106
:103050000F052046782100220123CDE90057029672
:103060004FF00008FDF7B4FC4FF02009204678210E
:10307000002201238DF80F90CDE900570296FDF74D
:10308000A7FC4FF0100A20467821002201238DF87A
:103090000FA0CDE900570296FDF79AFCB0208DF8FD
:1030A0000F002046782100220123CDE90057029627
:1030B000FDF78EFCC8208DF80F00204678210022F5
:1030C0000123CDE900570296FDF782FC20467821C6
:1030D000002201238DF80F80CDE900570296FDF7FD
:1030E00077FC20467821002201238DF80FA0CDE93E
:1030F00000570296FDF76CFC40208DF80F0020462B
:10310000782100220123CDE900570296FDF760FCEB
:1031100081208DF80F002046782100220123CDE97F
:1031200000570296FDF754FCFF208DF80F00204653
:10313000782100220123CDE900570296FDF748FCD3
:10314000A1208DF80F002046782100220123CDE92F
:1031500000570296FDF73CFCA6208DF80F00204694
:10316000782100220123CDE900570296FDF730FCBB
:10317000A8208DF80F002046782100220123CDE9F8
:1031800000570296FDF724FC3F208DF80F002046E3
:10319000782100220123CDE900570296FDF718FCA3
:1031A000A4208DF80F002046782100220123CDE9CC
:1031B00000570296FDF70CFCD3208DF80F00204637
:1031C000782100220123CDE900570296FDF700FC8B
:1031D00020467821002201238DF80F80CDE9005789
:1031E0000296FDF7F5FBD5208DF80F0020467821DB
:1031F00000220123CDE900570296FDF7E9FBF020FC
:103200008DF80F002046782100220123CDE90057D8
:103210000296FDF7DDFBD9208DF80F0020467821BE
:1032200000220123CDE900570296FDF7D1FB2220B1
:103230008DF80F002046782100220123CDE90057A8
:103240000296FDF7C5FBDA208DF80F0020467821A5
:1032500000220123CDE900570296FDF7B9FB1220A9
:103260008DF80F002046782100220123CDE9005778
:103270000296FDF7ADFBDB208DF80F00204678218C
:1032800000220123CDE900570296FDF7A1FB20465D
:103290007821002201238DF80F90CDE90057029686
:1032A000FDF796FB8D208DF80F0020467821002237
:1032B0000123CDE900570296FDF78AFB20467821CD
:1032C000002201238DF80F60CDE900570296FDF72B
:1032D0007FFBAF208DF80F002046782100220123CC
:1032E000CDE900570296FDF773FB40F2E000C2F211
:1032F00000004FF48061FCF7AFFF00F013F840F2DC
:10330000B001C2F200010120C1F8008004B0BDE8A4
:10331000F087000040F2B002C2F20002108051803B
:10332000704700002DE9F04F85B040F2E00640F212
:10333000E444C2F2000614270125C2F200040DF194
:1033400013084FF096094FF0800A4FF0000B00BFB2
:10335000ABF150008DF811000DF11100CDE9000521
:1033600020467821002201230297FDF731FB00203F
:103370008DF812000DF11200CDE9000520467821EC
:10338000002201230297FDF723FB10208DF8130084
:103390002046782100220123CDE900850297FDF720
:1033A00017FB2046782140220123CDE9006ACDF8A1
:1033B0000890FDF70DFB0BF1010BBBF1080F06F1B7
:1033C0008006C5D105B0BDE8F08F00002DE9F04FB3
:1033D00089B040F2B007C2F200073C885FFA81FC76
:1033E0000CEB04067F2E049205D87D88C1F30722DA
:1033F00057193F2F04D9002009B0BDE8F08F00BF56
:10340000002ACDE9006018BFBCF1000F0AD140F2DC
:10341000B0000099C2F200000180019809B0BDE837
:10342000F08F00BF019840F2E00B2038504303902A
:10343000ACF10100029001F003000590ACEB00003C
:103440000021C2F2000B0890CDE9062509E000BF7B
:1034500002EA08020BF80020069A0131079D91420A
:10346000D5D04819C2B23F2AF6D8039A049F0A441D
:1034700037F812E000F00702012707FA02FC029A6F
:103480008CF0FF08032A4FF4786202EA00194FF02B
:10349000000A22D205980028DED00AEB04000EFABA
:1034A0000AF2C5B2170400F0800640F18580002EB4
:1034B00040F08D804D441BF80560012B40F0838067
:1034C00046EA0C0781E000BF02EA08020BF8002080
:1034D00008980AF1040A5045DCD00EFA0AF004EB11
:1034E0000A020604D5B202F0800609D596B94D4409
:1034F0001BF80560012B09D146EA0C0608E000BF65
:1035000046B94D441BF80560002BF5D006EA0806C5
:103510000BF80560561CF5B2470406F0800609D585
:1035200096B94D441BF80560012B09D146EA0C06FB
:1035300008E000BF46B94D441BF80560002BF5D0EC
:1035400006EA08060BF80560961CF5B2870406F03B
:10355000800609D596B94D441BF80560012B09D1A9
:1035600046EA0C0608E000BF46B94D441BF805606A
:10357000002BF5D006EA08060BF80560D51CC00440
:10358000EAB205F0800009D50028A1D102EB0900BC
:103590001BF80020012B7FF497AF09E000287FF48F
:1035A00097AF02EB09001BF80020002B7FF48CAFD3
:1035B00042EA0C028AE700BF4EB94D441BF8056091
:1035C000002B3FF47DAF06EA08070BF80570059F56
:1035D000012F3FF441AF471C5604FDB207F08006AF
:1035E00008D58EB94D441BF80560012B08D146EA79
:1035F0000C0707E046B94D441BF80560002BF6D0D8
:1036000006EA08070BF80570059F022F3FF424AF68
:10361000871C9204F8B207F0800209D5002A7FF4D3
:103620001BAF48441BF80020012B7FF411AF08E0CA
:10363000002A7FF411AF48441BF80020002B7FF4D0
:1036400007AF42EA0C0205E7F0B581B01C460378EB
:10365000A3B115460E46471CD8B231462A4623462A
:10366000FFF7B4FE17F8011C884204D117F8013B9C
:10367000002BF1D10021084601B0F0BD0021084621
:1036800001B0F0BD000000000000000001020304D2
:103690000607080900000000010203040000000002
:1036A000000000000000000000000000000000001A
:1036B000000000000000000000000000000000000A
:1036C0000000000C000C000C000C000C000C000CA6
:1036D000000C000C000C000C0000000C000C0000A2
:1036E000000000000000001B001B001B001B001B53
:1036F00000000000000000000000000000000000CA
:1037000000000000000000000000801980198019EE
:103710008019C07FC07F80190033C07FC07F003315
:103720000033003300330000000000000000001EE2
:10373000003F807580650074003C001E0007800516
:10374000806580658075003F001E00040004000055
:103750000000007000D840D8C0D880D9007300069F
:10376000000C801BC036C066C046C0068003000047
:10377000000000000000001E003F00330033003353
:10378000001E000CC03CC066806380618063C03E48
:10379000801C0000000000000000000C000C000C69
:1037A000000C000C00000000000000000000000001
:1037B0000000000000000000000000008000000188
:1037C0000003000600060004000C000C000C000CB6
:1037D000000C000C0004000600060003000180003D
:1037E000002000100018000C000C00040006000669
:1037F00000060006000600060004000C000C00187D
:10380000001000200000000C002D003F001E0033BF
:1038100000000000000000000000000000000000A8
:103820000000000000000000000000000000000C8C
:10383000000C000C000CC0FFC0FF000C000C000CC2
:10384000000C00000000000000000000000000006C
:103850000000000000000000000000000000000068
:10386000000000000000000C000C00040004000830
:103870000000000000000000000000000000000048
:103880000000001E001E00000000000000000000FC
:103890000000000000000000000000000000000028
:1038A0000000000000000000000000000000000C0C
:1038B000000C0000000000000000000300030003F3
:1038C0000006000600060006000C000C000C000CB0
:1038D0000018001800180000000000000000001E82
:1038E000003F0033806180618061806D806D806108
:1038F000806180610033003F001E00000000000076
:1039000000000006000E001E00360026000600061D
:10391000000600060006000600060006000600007D
:10392000000000000000001E003F80738061806185
:10393000800100030006000C001800300060807F4A
:10394000807F0000000000000000001C003E0063BB
:1039500000630003000E000E0003800180018061FF
:103960008073003F001E0000000000000000000601
:10397000000E000E001E001E001600360036006607
:10398000807F807F00060006000600000000000027
:103990000000007F007F006000600060006E007F1C
:1039A00080638001800180618073003F001E000001
:1039B000000000000000001E003F803380610060B6
:1039C000006E007F80738061806180618033003F82
:1039D000001E0000000000000000807F807F80014A
:1039E0000003000300060006000C000C000C000899
:1039F0000018001800180000000000000000001E61
:103A0000003F8063806180610021001E003F806173
:103A1000806180618061003F001E000000000000A6
:103A20000000001E003F0073806180618061807330
:103A3000803F801D800180610073003F001E0000F8
:103A40000000000000000000000000000000000C6A
:103A5000000C000000000000000000000000000C4E
:103A6000000C00000000000000000000000000004A
:103A700000000000000C000C00000000000000002E
:103A80000000000C000C000400040008000000000E
:103A90000000000080008003000E00380060003845
:103AA000000E800380000000000000000000000005
:103AB00000000000000000000000807F807F000008
:103AC0000000807F807F00000000000000000000F8
:103AD0000000000000000000000000000040007036
:103AE000001C000780010007001C0070004000005F
:103AF00000000000000000000000001F803FC071B7
:103B0000C060C000C00180030007000E000C000C64
:103B10000000000C000C0000000000000000001E6F
:103B2000003F803180718063806F806D806D806F19
:103B3000806700600032003E001C000000000000B2
:103B40000000000E000E001B001B001B001B80313C
:103B50008031803F803F8031C060C060C060000025
:103B6000000000000000007C007E00630063006332
:103B70000063007E007E0063806180618063007F5F
:103B8000007E0000000000000000001E003F8031A9
:103B90008061006000600060006000600060806123
:103BA0008031003F001E0000000000000000007C8B
:103BB000007F0063806380618061806180618061DB
:103BC000806100630063007E007C00000000000054
:103BD0000000807F807F0060006000600060007FE8
:103BE000007F0060006000600060807F807F0000D8
:103BF000000000000000807F807F006000600060A7
:103C00000060007F007F0060006000600060006076
:103C100000600000000000000000001E003F803136
:103C2000806100600060006080638063806180610B
:103C30008031803F001E0000000000000000806115
:103C400080618061806180618061807F807F806130
:103C500080618061806180618061000000000000FF
:103C60000000003F003F000C000C000C000C000C9A
:103C7000000C000C000C000C000C003F003F00008A
:103C800000000000000080018001800180018001AF
:103C90008001800180018001806180618073003F2C
:103CA000001E0000000000000000C0608061006392
:103CB00000660066006C0078007C006600660063A9
:103CC00080618061C06000000000000000000060B2
:103CD00000600060006000600060006000600060E4
:103CE000006000600060807F807F000000000000B6
:103CF0000000C071C071C07BC07AC06AC06AC06E6B
:103D0000C064C060C060C060C060C060C0600000CF
:103D100000000000000080718071807980798079D6
:103D2000806D806D806D806580678067806780634F
:103D300080630000000000000000001E003F003310
:103D4000806180618061806180618061806180616B
:103D50000033003F001E0000000000000000007E55
:103D6000007F80638061806180618063007F007E6E
:103D70000060006000600060006000000000000063
:103D80000000001E003F003380618061806180611F
:103D900080618061806580670033803F401E000045
:103DA000000000000000007E007F80638061806171
:103DB0008063007F007E0066006300638061806135
:103DC000C0600000000000000000000E001F8031F5
:103DD000803100300038001E000780038061806160
:103DE0008031003F001E0000000000000000C0FF06
:103DF000C0FF000C000C000C000C000C000C000CB0
:103E0000000C000C000C000C000C00000000000076
:103E1000000080618061806180618061806180617B
:103E200080618061806180618073003F001E0000BE
:103E3000000000000000C060C060C06080318031C0
:103E40008031001B001B001B001B000E000E000E2B
:103E500000040000000000000000C0C0C0C0C0C0DE
:103E6000C0C0C0C0C0CC804C804C805E80528052AC
:103E70008073806180610000000000000000C0C00D
:103E8000806080610033003B001E000C000C001EAF
:103E9000001F003B80718061C0C000000000000076
:103EA0000000C0C08061806100330033001E001E2E
:103EB000000C000C000C000C000C000C000C0000AE
:103EC000000000000000803F803F800100030003ED
:103ED0000006000C000C0018001800300060807F05
:103EE000807F000000000000000F000F000C000C9D
:103EF000000C000C000C000C000C000C000C000C62
:103F0000000C000C000C000C000F000F000000184B
:103F100000180018000C000C000C000C0006000635
:103F2000000600060003000300030000000000007C
:103F3000001E001E00060006000600060006000621
:103F40000006000600060006000600060006000641
:103F5000001E001E0000000C000C001E00120033AA
:103F6000003380618061000000000000000000005C
:103F70000000000000000000000000000000000041
:103F80000000000000000000000000000000000031
:103F90000000000000000000E0FF0000000000380A
:103FA0000018000C000000000000000000000000ED
:103FB0000000000000000000000000000000000001
:103FC00000000000000000000000001F803F806132
:103FD0008001801F803F80618063807FC038000047
:103FE0000000000000000060006000600060006EE3
:103FF000007F807380618061806180618073007F59
:10400000006E000000000000000000000000000042
:104010000000001E003F80738061006000608061CE
:104020008073003F001E00000000000000008001BF
:10403000800180018001801D803F807380618061EC
:10404000806180618073803F801D0000000000005F
:1040500000000000000000000000001E003F007390
:104060008061807F807F00608071003F001E0000C3
:10407000000000000000C007C00F000C000C807F93
:10408000807F000C000C000C000C000C000C000CDD
:10409000000C000000000000000000000000000014
:1040A000801D803F8073806180618061806180734A
:1040B000803F801D80018063007F003E0000006023
:1040C000006000600060006F807F807180618061AF
:1040D000806180618061806180610000000000007B
:1040E00000000006000600000000003E003E000642
:1040F0000006000600060006000600060006000096
:10410000000000000006000600000000003E003E27
:10411000000600060006000600060006000600066F
:1041200000060046007E003C000000600060006069
:104130000060806100630066006C007C00760063B4
:1041400000638061C0600000000000000000003ECD
:10415000003E0006000600060006000600060006F7
:104160000006000600060006000600000000000031
:104170000000000000000000000080DDC0FFC0CE95
:10418000C0CCC0CCC0CCC0CCC0CCC0CCC0CC00005B
:104190000000000000000000000000000000006FB0
:1041A000807F8071806180618061806180618061D9
:1041B000806100000000000000000000000000001E
:1041C0000000001E003F807380618061806180611B
:1041D0008073003F001E000000000000000000008F
:1041E00000000000006E007F80738061806180614C
:1041F00080618073007F006E00600060006000607E
:104200000000000000000000801D803F807380617E
:104210008061806180618073803F801D80018001AA
:104220008001800100000000000000000000006725
:10423000803F003900300030003000300030003066
:10424000003000000000000000000000000000003E
:104250000000001E803F80610060007F803F800181
:104260008061007F001E00000000000000000000D0
:10427000000800180018007F007F001800180018C0
:10428000001800180018801F800F000000000000B8
:10429000000000000000000000008061806180617B
:1042A00080618061806180618063807F803D0000EB
:1042B0000000000000000000000000000000C060DE
:1042C000803180318031001B001B001B000E000E6E
:1042D00000060000000000000000000000000000D8
:1042E000000080DD80DD80DD005500550055007741
:1042F0000077002200220000000000000000000003
:10430000000000000000806100330033001E000C3C
:10431000000C001E0033003380610000000000002C
:1043200000000000000000008061806180310033E7
:104330000033001B001B001B000E000E000E001CB3
:10434000007C007000000000000000000000C07F42
:10435000C07F800100030006000C00180030C07F01
:10436000C07F0000000000008003800700060006F8
:10437000000600060006000E001C001C000E0006D1
:1043800000060006000600068007800300060006FF
:1043900000060006000600060006000600060006ED
:1043A00000060006000600060006000600060006DD
:1043B0000038003C000C000C000C000C000C000E3F
:1043C00000070007000E000C000C000C000C000C95
:1043D000003C003800000000000000000000000069
:1043E00000008038807F00470000000000000000CF
:1043F00000000000000000000000000000000000BD
:1044000000000000000000000000000000000000AC
:10441000000000000000000000000000000000009C
:10442000000000000000000000000000E003E003C6
:10443000E003E003E003E003E003E003C003C003A4
:10444000C001C001C001C001C001000000000000A7
:10445000E003E003E00300000000000000000000B3
:104460003C1E3C1E3C1E3C1E3C1E3C1E3C1E0000D6
:10447000000000000000000000000000000000003C
:10448000000000000000000000000000000000002C
:1044900000000000CE01CE03DE039E039C039C07B8
:1044A000FF3FFF7F3807380F780F780F780EFFFF38
:1044B000FFFFF01EF01CE01CE03CE03DE039000096
:1044C0000000000000000000FC03FE0FEE1FE01ED5
:1044D000E01EE01EE01EE01FE00FE007F003FC011D
:1044E000FE01FE01FE01FE01FE01FE01FE3DFC3F5C
:1044F000F00FE001E001000000000000033E07F7BC
:104500008FE78EE79EE3BCE3B8E7F8E7F0F7E03F1C
:10451000C001FF03FF07F307F30FF31EF33CF3386B
:10452000F3787FF03FE00000000000000000000092
:10453000E007F80F780F781F781F781F780FF00FBB
:10454000E00F801FC37FC3FBE7F3F7F1F7F0FFF045
:104550007FF03EF87F7CFF3FEF1F0000000000006F
:1045600000000000E003E003E003E003E003C00319
:10457000C00100000000000000000000000000007A
:10458000000000000000000000000000000000002B
:1045900000000000000000003F007C00F001E0018E
:1045A000C003C00780078007800F000F000F000FB7
:1045B000000F000F000F800F80078007C007C003A7
:1045C000E001F0017C003F000F000000007E001FB2
:1045D000C007C003E001F001F000F000F80078002F
:1045E00078007800780078007800F800F000F0009B
:1045F000F001E001C003C007001F007E007800004A
:10460000E003C003C001CE39FF3F7F3F20037003AA
:10461000F807780F3C1F380600000000000000007B
:10462000000000000000000000000000000000008A
:10463000000000000000000000000000000000007A
:10464000C001C001C001C001C001C001C001FFFF25
:10465000FFFFC001C001C001C001C001C0010000D6
:10466000000000000000000000000000000000004A
:10467000000000000000000000000000000000003A
:1046800000000000000000000000E003E003E00381
:10469000E003E001E001E001C00180030000000050
:1046A000000000000000000000000000000000000A
:1046B0000000FE3FFE3F0000000000000000000080
:1046C00000000000000000000000000000000000EA
:1046D00000000000000000000000000000000000DA
:1046E00000000000000000000000000000000000CA
:1046F0000000E003E003E003E0030000000000002E
:10470000000000000F000F001E001E003C003C00D7
:1047100078007800F000F000E001E001C003C00381
:1047200080078007000F000F001E001E003C003CA9
:104730000078007800F00000F007F80F7C1F3E3E84
:104740001E3C1F7C1F7C0F780F780F780F780F7836
:104750000F780F781F7C1F7C1E3C3E3E7C1FF80F9D
:10476000F00700000000000000000000F000F0076B
:10477000F03FF03FF001F001F001F001F001F00135
:10478000F001F001F001F001F001F001F001F001A1
:10479000F001FF3FFF3F00000000000000000000AC
:1047A000E00FF83F7C3C3C003E003E003E003C00F9
:1047B0003C007C00F800F001E003C0078007000F18
:1047C000001E003E003CFE3FFE3F000000000000D7
:1047D00000000000F00FF81F7C1C3E003E003E0071
:1047E0003C003C00F800F00FF80F7C003E001E007B
:1047F0001E001E001E003E007C1CF81FE01F000073
:1048000000000000000000007800F800F800F80147
:10481000F803F807F807780F781E781E783C787848
:104820007878FFFFFFFF7800780078007800780044
:10483000780000000000000000000000FC1FFC1FCA
:10484000FC1F001E001E001E001E001EE01FF81FA1
:10485000FC007C003E003E001E003E003E003C008E
:104860007C1CF81FE01F000000000000000000009A
:10487000FC01FE078E0F001F001E003E003C003CA6
:10488000F83DFC3F3E7F1F7E0F3C0F3C0F3C0F3C32
:104890000F3E1F1E3E1FFC0FF00300000000000033
:1048A00000000000FF3FFF3FFF3F0F001E001E0003
:1048B0003C0038007800F000F000E001E001C003A7
:1048C000C0038007800F800F000F001F001F000033
:1048D0000000000000000000F807FC0F3E1F1E1E35
:1048E0001E3E1E3E1E1E3C1FF80FF007F80FFC1E5A
:1048F0003E3E1F3C1F7C0F7C0F7C1F3C3E3FFC1F3D
:10490000F00700000000000000000000F007F80FB2
:104910007C1E3E3C1E3C1F7C1F7C1F7C1F7C1F3C62
:104920003F3EFF1FEF071F001E001E003E003C0021
:10493000F838F03FE01F0000000000000000000019
:10494000000000000000000000000000E003E003A1
:10495000E003E00300000000000000000000000091
:104960000000E003E003E003E003000000000000BB
:104970000000000000000000000000000000000037
:10498000E003E003E003E00300000000000000009B
:10499000000000000000E003E003E003E003E001AA
:1049A000E001E001C00380030000000000000000FF
:1049B0000000000003000F003F00FC00F003C00FE8
:1049C000003F00FE003FC00FF003FC003F000F005F
:1049D00003000000000000000000000000000000D4
:1049E00000000000000000000000000000000000C7
:1049F000FFFFFFFF000000000000FFFFFFFF0000BF
:104A000000000000000000000000000000000000A6
:104A100000000000000000000000000000E000F8BE
:104A2000007E801FE007F8017E001F007E00F80175
:104A3000E007801F007E00F800E00000000000009A
:104A400000000000F01FFC3F3E381F381F381E00DA
:104A50001E003C007800F000E001C003C003C00766
:104A6000C007000000000000C007C007C00700002A
:104A70000000000000000000F803FE0F1E1F0F3EA4
:104A80007F3CFF78EF79C773C7F38FF38FF38FF312
:104A90009FF39FF3FF73FF7BF779003C1C1FFC0F14
:104AA000F80300000000000000000000000000000B
:104AB0000000E003E003F007F007F007780F780F3D
:104AC0007C0E3C1E3C1E3E3CFE3FFF3F1F780F7895
:104AD0000FF007F007F000000000000000000000E9
:104AE000000000000000F83FFC3F3E3C1E3C1E3C26
:104AF0001E3C3E3C7C3CF03FF83F7E3C1F3C1F3C54
:104B00000F3C0F3C1F3CFE3FF83F00000000000040
:104B100000000000000000000000FF01FF07871FE9
:104B2000003E003C007C0078007800780078007837
:104B3000007C007C003E003F831FFF07FF01000058
:104B40000000000000000000000000000000F07FF6
:104B5000FC7F7E781F781F780F780F780F780F789A
:104B60000F780F780F780F781F781E787E78F87F8F
:104B7000E07F0000000000000000000000000000D6
:104B80000000FF3FFF3F003E003E003E003E003E73
:104B9000003EFE3FFE3F003E003E003E003E003E27
:104BA000003EFF3FFF3F000000000000000000004B
:104BB000000000000000FF1FFF1F001E001E001E5F
:104BC000001E001E001EFF1FFF1F001E001E001EF5
:104BD000001E001E001E001E001E0000000000003F
:104BE00000000000000000000000FE03FF0F871F10
:104BF000003E007C007C007800F800F87FF87FF829
:104C00000F780F7C0F7C0F3E8F1FFF0FFE030000FD
:104C100000000000000000000000000000001F7CF9
:104C20001F7C1F7C1F7C1F7C1F7C1F7C1F7CFF7FC9
:104C3000FF7F1F7C1F7C1F7C1F7C1F7C1F7C1F7CB9
:104C40001F7C0000000000000000000000000000C9
:104C50000000FF3FFF3FE003E003E003E003E00369
:104C6000E003E003E003E003E003E003E003E0032C
:104C7000E003FF3FFF3F00000000000000000000D5
:104C8000000000000000FC1FFC1F7C007C007C007A
:104C90007C007C007C007C007C007C007C007C0034
:104CA00078007800F838F03FC03F000000000000B6
:104CB000000000000000000000001F3C1E3C3C3CC7
:104CC000783CF03CE03DE03FC03F803FC03FE03FEC
:104CD000F03DF03C783C7C3C3E3C1F3C0F3C0000EF
:104CE0000000000000000000000000000000003E86
:104CF000003E003E003E003E003E003E003E003EC4
:104D0000003E003E003E003E003E003E003EFF3FB3
:104D1000FF3F000000000000000000000000000055
:104D200000001FF81FFC1FFC3FFE3FFE3FFE7FFF01
:104D300077FF77FFF7F7E7F7E7F3E7F3C7F307F056
:104D400007F007F007F0000000000000000000007E
:104D50000000000000000F7C0F7C0F7E0F7F0F7F94
:104D60008F7F8F7FCF7FEF7BEF79FF79FF78FF78A1
:104D70007F783F783F781F781F78000000000000A0
:104D800000000000000000000000F007FC1F3E3E95
:104D90001F7C0F780F780FF80FF80FF80FF80FF847
:104DA0000FF80F780F781F7C3E3EFC1FF0070000C5
:104DB0000000000000000000000000000000FC3FB8
:104DC000FF3F1F3E0F3E0F3E0F3E0F3E1F3E3F3E3A
:104DD000FC3FF03F003E003E003E003E003E003EF5
:104DE000003E000000000000000000000000000085
:104DF0000000F007FC1F3E3E1F7C0F780F780FF875
:104E00000FF80FF80FF80FF80FF80F780F781F7CD6
:104E10003E3EFC1FF8077C003F000F00030000002F
:104E2000000000000000F03FFC3F7E3C3E3C1E3C8A
:104E30001E3C3E3C3C3CFC3CF03FE03FF03DF83C3F
:104E40007C3C3E3C1E3C1F3C0F3C00000000000030
:104E500000000000000000000000FC07FE1F0E3EE6
:104E6000003C003C003C003EC01FF80FFE037F00EA
:104E70001F000F000F001F203E3CFC3FF01F0000F2
:104E80000000000000000000000000000000FFFF24
:104E9000FFFFE003E003E003E003E003E003E003DF
:104EA000E003E003E003E003E003E003E003E003EA
:104EB000E00300000000000000000000000000000F
:104EC00000000F7C0F7C0F7C0F7C0F7C0F7C0F7C15
:104ED0000F7C0F7C0F7C0F7C0F7C0F7C1E3C1E3CDC
:104EE0003E3EFC1FF0070000000000000000000034
:104EF00000000000000007F007F007F80F780F7CB3
:104F00001E3C1E3C1E3E3C1E3C1F781F780FF80FB7
:104F1000F007F007F007E003E003000000000000E6
:104F20000000000000000000000003E003F003F0B8
:104F300007F0E7F3E7F3E7F3E773F77BF77FFF7F2C
:104F40007F7F7F7F7E7F7E3F3E3E3E3E3E3E000037
:104F5000000000000000000000000000000007F852
:104F60000F7C1E3E3E3E3C1FF80FF007E007E003BB
:104F7000E003F007F80F7C0F7C1E3E3C1F780F7893
:104F80000FF0000000000000000000000000000022
:104F9000000007F807780F7C1E3C1E3E3C1F780F70
:104FA000F80FF007E003E003E003E003E003E003B1
:104FB000E003E003E0030000000000000000000048
:104FC000000000000000FF7FFF7F0F001F003E0079
:104FD0007C00F800F000E001E003C007800F000F44
:104FE000001E003E007CFF7FFF7F000000000000ED
:104FF00000000000FF078007800780078007800708
:105000008007800780078007800780078007800768
:105010008007800780078007800780078007800758
:105020008007FF07FF07000000780078003C003C85
:10503000001E001E000F000F80078007C003C00382
:10504000E001E001F000F000780078003C003C0056
:105050001E001E000F000F0007000000F07FF00090
:10506000F000F000F000F000F000F000F000F000C0
:10507000F000F000F000F000F000F000F000F000B0
:10508000F000F000F000F000F000F07FF07F000092
:10509000C000C001C001E003E003F007F00778079B
:1050A000780F380F3C1E3C1E1E3C1E3C0F380F78FC
:1050B0000778000000000000000000000000000071
:1050C00000000000000000000000000000000000E0
:1050D00000000000000000000000000000000000D0
:1050E0000000000000000000000000000000FFFFC2
:1050F000FFFF000000000000F000000000000000C2
:10510000000000000000000000000000000000009F
:10511000000000000000000000000000000000008F
:10512000000000000000000000000000000000007F
:105130000000000000000000F80FFC3F7C3C3E0037
:105140003E003E00FE07FE1F3E3E3E7C3E783E7C1B
:105150007E7CFF3FCF1F0000000000000000000029
:10516000003C003C003C003C003C003CF83DFE3F65
:105170003E3F1F3E0F3C0F3C0F3C0F3C0F3C0F3C93
:105180001F3C1E3C3E3FFC3FF03B00000000000087
:10519000000000000000000000000000000000000F
:1051A000FE03FF0F871F003E003E003C007C007C9A
:1051B000007C003C003E003E871FFF0FFE03000006
:1051C00000000000000000001F001F001F001F0063
:1051D0001F001F00FF07FF1F3F3E1F3C1F7C1F7C5F
:1051E0001F7C1F781F781F7C1F7C3F3C7F3EFF1F6A
:1051F000DF0F0000000000000000000000000000C1
:105200000000000000000000F803FC0F3E1F1E3EDF
:105210001F3C1F7CFF7FFF7F007C007C003C003E2A
:10522000071FFF0FFE030000000000000000000049
:10523000FF01E103C003C007C007C007FF7FFF7F76
:10524000C007C007C007C007C007C007C007C00726
:10525000C007C007C007C007C0070000000000006B
:10526000000000000000000000000000000000003E
:10527000EF07FF1F7F3E1F3C1F7C1F7C1F781F789E
:105280001F781F7C1F7C3F3C7F3EFF1FDF0F1E00EF
:105290001E001E007C38F83F003C003C003C003CF7
:1052A000003C003CFC3DFE3F9E3F1F3F1F3E1F3C1D
:1052B0001F3C1F3C1F3C1F3C1F3C1F3C1F3C1F3C16
:1052C0001F3C00000000000000000000F001F001A1
:1052D0000000000000000000E07FE07FE001E0014E
:1052E000E001E001E001E001E001E001E001E001B6
:1052F000E001E001E001000000000000000000000B
:10530000F800F8000000000000000000F83FF83F3F
:10531000F800F800F800F800F800F800F800F800CD
:10532000F800F800F800F800F800F800F800F000C5
:10533000F071E07F003C003C003C003C003C003C45
:105340001F3C3E3C7C3CF83CF03DE03DC03FC03F54
:10535000E03FF03DF83C7C3C3E3C1F3C1F3C0000E5
:105360000000000000000000F07FF001F001F001FB
:10537000F001F001F001F001F001F001F001F001A5
:10538000F001F001F001F001F001F001F001F00195
:10539000F00100000000000000000000000000001C
:1053A00000000000000000009EF7FFFFFFFFFFFF6E
:1053B000E7FBE7F9C7F1C7F1C7F1C7F1C7F1C7F1DB
:1053C000C7F1C7F1C7F100000000000000000000B5
:1053D000000000000000000000000000FC3DFE3F57
:1053E0009E3F1F3F1F3E1F3C1F3C1F3C1F3C1F3C5E
:1053F0001F3C1F3C1F3C1F3C1F3C000000000000E6
:10540000000000000000000000000000000000009C
:10541000F007FC1F3E3E1F3C1F7C0F780F780F7873
:105420000F780F781F7C1F3C3E3EFC1FF0070000EA
:10543000000000000000000000000000000000006C
:1054400000000000F83DFE3F3E3F1F3E0F3C0F3C7A
:105450000F3C0F3C0F3C0F3C1F3C1E3E3E3FFC3FB1
:10546000F83F003C003C003C003C003C00000000D9
:105470000000000000000000EE07FE1F7E3E1E3C04
:105480001E7C1E781E781E781E781E781E7C3E7C40
:105490007E3EFE1FDE0F1E001E001E001E001E00B0
:1054A0000000000000000000000000007F1FFF1F40
:1054B000E71FC71F871F001F001F001F001F001FBF
:1054C000001F001F001F001F001F00000000000041
:1054D00000000000000000000000000000000000CC
:1054E000FC07FE1F0E1E003E003E003FE01FFC07B3
:1054F000FE003E001E001E003E3CFC3FF01F000070
:105500000000000000000000000000000000800714
:1055100080078007FF7FFF7F800780078007800765
:10552000800780078007800780078007C007FF0388
:10553000FF0100000000000000000000000000006B
:1055400000000000000000001E3C1E3C1E3C1E3CF3
:105550001E3C1E3C1E3C1E3C1E3C1E3C3E3C7E3CFB
:10556000FE3EFE1FDE0F00000000000000000000F5
:1055700000000000000000000000000007F00F78AD
:105580000F781E3C1E3C1E3E3C1E3C1E780F780FC2
:10559000F00FF007F007E003E00300000000000058
:1055A00000000000000000000000000000000000FB
:1055B00003F0E3F1E3F3E7F3F7F3F7F3F77F777F34
:1055C0007F7F7F7F7F7F3E3E3E3E3E3E3E3E0000F1
:1055D00000000000000000000000000000000000CB
:1055E000000000000F7C1E3E3C3E3C1FF80FF00701
:1055F000F007E003F007F807F80F7C1E3E3E1F3C63
:105600001F78000000000000000000000000000003
:10561000000000000000000007F80F780F7C1E3C1F
:105620001E3C3C1E3C1E3C1F780FF80FF007F00795
:10563000E003E003C003C003C0038007800F007FC6
:10564000000000000000000000000000FF3FFF3FDE
:105650001F003E007C00F800F001E003C007800F4F
:10566000001F001E003CFF7FFF7F000000000000C5
:1056700000000000FE01E003C003C003C003C0033C
:10568000E001E001E001C001C003803F803FC003B2
:10569000C001E001E001E001C003C003C003C0039A
:1056A000E003FE017E000000C001C001C001C00196
:1056B000C001C001C001C001C001C001C001C001E2
:1056C000C001C001C001C001C001C001C001C001D2
:1056D000C001C001C001C001C0010000C03FE00323
:1056E000E001E001E001E001C001C003C003C0012E
:1056F000E001FE00FE00E001C001C003C003C001E4
:10570000E001E001E001E001E003C03F003F0000F4
:105710000000000000000000000000000000000089
:10572000000000000000073FC77FE773FFF17EF035
:105730000000000000000000000000000000000069
:105740000000000000000000000000000000000059
:105750000000000000000000001000100010001009
:1057600000100010000000100000000000280028B9
:105770000028000000000000000000000000000001
:1057800000240024007C00240048007C00480048DD
:10579000000000000038005400500038001400548D
:1057A0000054003800100000002000540058003061
:1057B0000028005400140008000000000010002819
:1057C00000280010003400480048003400000000A9
:1057D0000010001000100000000000000000000099
:1057E0000000000000080010002000200020002021
:1057F0000020002000100008002000100008000811
:105800000008000800080008001000200010003800
:105810000010002800000000000000000000000050
:105820000000000000100010007C001000100000BC
:105830000000000000000000000000000000000068
:105840000000001000100010000000000000000028
:105850000000003800000000000000000000000010
:105860000000000000000000000000100000000028
:105870000008000800100010001000100020002098
:10588000000000000038004400440054004400447C
:1058900000440038000000000010003000500010EC
:1058A000001000100010001000000000003800443C
:1058B00000440004000800100020007C00000000EC
:1058C00000380044000400180004000400440038BC
:1058D0000000000000080018002800280048007C94
:1058E0000008000800000000007C00400040007834
:1058F00000040004004400380000000000380044A8
:1059000000400078004400440044003800000000DB
:10591000007C00040008001000100020002000207F
:1059200000000000003800440044003800440044F7
:1059300000440038000000000038004400440044E7
:10594000003C00040044003800000000000000009B
:105950000010000000000000000000100000000027
:105960000000000000000010000000000000001017
:105970000010001000000000000C0030004000305B
:10598000000C000000000000000000000000007C8F
:105990000000007C0000000000000000000000008B
:1059A0000060001800040018006000000000000003
:1059B000003800440004000800100010000000102F
:1059C0000000000000380044004C0054005C00401F
:1059D00000400038000000000010002800280028C7
:1059E0000028007C004400440000000000780044CF
:1059F00000440078004400440044007800000000A7
:105A0000003800440040004000400040004400389E
:105A100000000000007000480044004400440044BE
:105A20000048007000000000007C00400040007C46
:105A3000004000400040007C00000000007C00406E
:105A4000004000780040004000400040000000009E
:105A50000038004400400040005C0044004400382E
:105A600000000000004400440044007C0044004466
:105A70000044004400000000003800100010001036
:105A800000100010001000380000000000040004A6
:105A9000000400040004000400440038000000007A
:105AA0000044004800500060005000480048004496
:105AB0000000000000400040004000400040004066
:105AC0000040007C000000000044006C006C0054AA
:105AD000004400440044004400000000004400640E
