:020000040800F2
:10000000980C002089010008071B00085117000800
:10001000051B00088F020008051E000800000000F4
:100020000000000000000000000000000B1B0008A2
:100030000103000800000000091B00080D1B000858
:10004000A3010008A3010008A3010008A301000800
:10005000A3010008A3010008A3010008A3010008F0
:10006000A3010008A3010008A3010008A3010008E0
:10007000A3010008A3010008A3010008A3010008D0
:10008000A3010008A3010008A3010008A3010008C0
:10009000A3010008A3010008A3010008A3010008B0
:1000A000A3010008A3010008A3010008A3010008A0
:1000B000A3010008A3010008A3010008A301000890
:1000C000A3010008A3010008A3010008A301000880
:1000D000A3010008A3010008A3010008F91D0008FE
:1000E000A3010008A3010008A301000800F002F822
:1000F00000F03AF80AA090E8000C82448344AAF188
:100100000107DA4501D100F02FF8AFF2090EBAE885
:100110000F0013F0010F18BFFB1A43F0010318473B
:100120009C4E0000BC4E0000103A24BF78C878C135
:10013000FAD8520724BF30C830C144BF04680C60ED
:10014000704700000023002400250026103A28BF35
:1001500078C1FBD8520728BF30C148BF0B60704739
:100160001FB51FBD10B510BD00F058F81146FFF7C0
:10017000F7FF02F049F800F076F803B4FFF7F2FF5A
:1001800003BC00F07DF8000009488047094800479B
:10019000FEE7FEE7FEE7FEE7FEE7FEE7FEE7FEE737
:1001A000FEE7FEE704480549054A064B7047000094
:1001B0006F1B0008ED00000898060020980C002036
:1001C00098080020980800204FF0000200B5134660
:1001D00094469646203922BFA0E80C50A0E80C5067
:1001E000B1F12001BFF4F7AF090728BFA0E80C5018
:1001F00048BF0CC05DF804EB890028BF40F8042B11
:1002000008BF704748BF20F8022B11F0804F18BF7D
:1002100000F8012B7047704770477047754600F033
:100220002BF8AE4605006946534620F00700854688
:1002300018B020B5FFF7B6FFBDE820404FF000062C
:100240004FF000074FF000084FF0000B21F00701BE
:10025000AC46ACE8C009ACE8C009ACE8C009ACE801
:10026000C0098D46704710B50446AFF300802046A4
:10027000BDE81040FFF781BF0048704734060020FA
:1002800001491820ABBEFEE7260002007047FEE7DA
:100290000E48016821F080710160016841F08071B1
:1002A00001600B48016821F001010160016841F023
:1002B000010101600021416000BF00BF00BF406834
:1002C00008B100207047012070470000FCED00E0FD
:1002D000001000E031B5084D6C6800F029FE0749B8
:1002E000B0FBF1F000994843009068680099001B4A
:1002F0008842FAD338BD0000001000E040420F00F1
:100300007047000070B5A44CA44D4FF40051A06993
:100310000288A348D30413D4012200F046FB607C7A
:1003200001280BD035214B2002F086F9D5E90012C7
:1003300001239CA002F00CFA02F084F9012014E0E1
:10034000530414D4012200F030FB607C02280BD04F
:1003500035214B2002F070F9D5E90012012393A05A
:1003600002F0F6F902F06EF90220607470BD930499
:1003700013D4012200F019FB607C03280BD0352137
:100380004B2002F059F9D5E90012012389A002F0AF
:10039000DFF902F057F90320E7E7130413D4012231
:1003A00000F003FB607C04280BD035214B2002F0C9
:1003B00043F9D5E90012012380A002F0C9F902F047
:1003C00041F90420D1E7530713D4012200F0EDFADC
:1003D000607C05280BD035214B2002F02DF9D5E9A2
:1003E0000012012377A002F0B3F902F02BF90520E7
:1003F000BBE7D30715D0130727D4012200F0D5FAA5
:10040000607C07280BD035214B2002F015F9D5E987
:10041000001201236DA002F09BF902F013F90720EE
:10042000A3E7012200F0C1FA607C06280BD0352139
:100430004B2002F001F9D5E90012012365A002F07A
:1004400087F902F0FFF806208FE7930713D4012203
:1004500000F0ABFA607C08280BD035214B2002F06D
:10046000EBF8D5E9001201235CA002F071F902F06B
:10047000E9F8082079E7D30513D4012200F095FAB2
:10048000607C09280BD035214B2002F0D5F8D5E946
:100490000012012353A002F05BF902F0D3F8092007
:1004A00063E7130513D4012200F07FFA607C0A2869
:1004B0000BD035214B2002F0BFF8D5E90012012303
:1004C0004AA002F045F902F0BDF80A204DE7930674
:1004D00013D4012200F069FA607C0B280BD035217F
:1004E0004B2002F0A9F8D5E90012012341A002F047
:1004F0002FF902F0A7F80B2037E7130613D40122D7
:1005000000F053FA607C0C280BD035214B2002F010
:1005100093F8D5E90012012338A002F019F902F08E
:1005200091F80C2021E7D30613D4012200F03DFA04
:10053000607C0D280BD035214B2002F07DF8D5E9E9
:10054000001201232FA002F003F902F07BF80D2026
:100550000BE7520613D4012200F027FA607C0E2824
:100560000BD035214B2002F067F8D5E900120123AA
:1005700026A002F0EDF802F065F80E20F5E62278EC
:10058000FF2A02D16278FF2A01D0012200E0002276
:10059000BDE8704000F009BA2800002010000020DB
:1005A0000010014020202020205550002020204411
:1005B0004F574E0020205249474854002020204CDD
:1005C0004546540020202020204C310020202020AF
:1005D0002052310020202020204C320020202020DA
:1005E000205232002053454C4543540020205354A0
:1005F0004152540020202054524F4E002020565586
:100600004F4E470054414D47494143002020202090
:100610002020580010B50024048044800273C38059
:10062000816010BD002804D08188C088814201D338
:10063000012070470020704710B5028843889A4215
:1006400003D100218180084610BD00220EE04488BD
:1006500083681B5D8B544388C4885B1C641E2340E5
:10066000438083885B1E521C8380D2B2037B9342FB
:10067000EDD8012010BD30B5024600200EE01588EF
:1006800094680B5C63551388D4885B1C641E2340FC
:10069000138093885B1C401C9380C0B2137B834201
:1006A000EDD81046FFF7BEFF30B15088117B0844EB
:1006B000D188491E08405080012030BD10B590F807
:1006C00021100022022905D00421816380F8202016
:1006D000012010BD01680B6823F00E030B60016858
:1006E0000B6823F001030B6090F84030C46B0121CC
:1006F00001FA03F3636080F8211080F8202010468F
:1007000010BD000010B590F821100024022903D07C
:100710000421816301243DE001680A6822F00E0291
:100720000A6001680A6822F001020A601A4A016838
:10073000914201D1012121E0174A1432914201D1A5
:1007400010211BE0144A2832914201D1891515E08D
:10075000114A3C32914201D189140FE00E4A5032C5
:10076000914202D14FF4803108E00B4A6432914249
:1007700002D14FF4801101E04FF08071064A083A2F
:100780005160012180F82110002180F82010416B78
:1007900001B18847204610BD0800024070B50446EC
:1007A00000F008F90546601C02D0044800780444B3
:1007B00000F000F9401BA042FAD370BD00000020F9
:1007C0002DE9F84FDFF8B8910024A9F1040B234676
:1007D0000F2709F1040AABF1040EC9E00125A54079
:1007E0002A40AA427DD1674ED1F804C0ACEB06087E
:1007F000B44532D014DCBCF1030F3AD009DCBCF1B3
:10080000000F2AD0BCF1010F1CD0BCF1020F31D176
:100810001DE0BCF1110F17D0BCF1120F2AD119E065
:10082000B8F5881F19D006DCB8F5803F15D0B8F5AB
:10083000801F1FD111E0B8F5001F0ED0B8F5041FBE
:1008400018D10AE0CB6815E0CB681B1D12E0CB681D
:1008500008330FE0CB680C330CE08B682BB1012B15
:100860004FF0080303D0456104E0042302E0056172
:1008700000E00023FF2A01D8064601E000F104064B
:100880004FEA840501D9A5F12005D6F8008007FAC2
:1008900005FC28EA0C0803FA05F548EA0508C6F83D
:1008A00000804D68ED0062D5374DAE6946F0010617
:1008B000AE61AD6924F0030605F001050095334DE6
:1008C00006EB050CDCF80850A607360F07FA06F809
:1008D00025EA0805DFF8B880404503D14FF000084D
:1008E00017E044E0DFF8AC80404502D14FF001084A
:1008F0000FE0DFF8A480404502D14FF0020808E085
:10090000DFF89880404502D14FF0030801E04FF036
:10091000040808FA06F848EA0508CCF808804D688B
:10092000D9F80060ED024D4601D5164300E096432C
:100930002E604D68DAF80060AD02554601D51643C9
:1009400000E096432E604D68DBF80060AD035D4625
:1009500001D5164300E096432E604D68DEF8006036
:10096000ED03754601D5164300E096432E60641CE6
:100970000D682A46E5407FF431AFBDE8F88F0000EE
:100980000804014000001110001002400000014066
:1009900000080140000C014000100140001401401B
:1009A0008068084000D0012070470AB1016170479B
:1009B0000904FBE701488068704700000000002040
:1009C00070B5040025D094F83D00002520B984F8C6
:1009D0003C50204600F050F9242084F83D00206867
:1009E000016821F0010101602068016841F40041C3
:1009F00001602068016821F40041016000F09EFA66
:100A00004D4A6168914201D84C4900E04C49884206
:100A100001D2012070BD4B492368B0FBF1F15E6843
:100A200026F03F060E435E606368934206D94FF49A
:100A3000967359434FF47A73B1FBF3F12368491C61
:100A40001E6A26F03F06314319626168914210D850
:100A50004900401EB0FBF1F2521CC2F30B02042A03
:100A600001D2042022E0B0FBF1F0401CC0F30B00E7
:100A70001CE0A268F2B301EBC10303EB0116431EB5
:100A8000B3FBF6F35B1C43F480431B0549D092B3E0
:100A900001EBC10202EB0111401EB0FBF1F0401C62
:100AA000C0F30B0040F4804040F400402168CA6964
:100AB0004CF6FF739A431043C861D4E90710014311
:100AC0002068026822F0C00211430160D4E90301EA
:100AD00001432068826848F2FF339A4311438160E2
:100AE000D4E9050108432168CA6822F0FF021043D7
:100AF000C86001E00EE016E02068016841F00101E5
:100B000001602564202084F83D00256384F83E5070
:100B1000002070BD01EB4106431EB3FBF6F35B1CE6
:100B2000B3E70120C2E701EB4101401EB0FBF1F049
:100B3000401CC0F30B00B7E7A086010080841E00B4
:100B400000093D0040420F002DE9FF4F83B09A4657
:100B5000DDE9119793460446DDF84080FFF72AFF50
:100B6000054694F83D0020287FD1192301224049F1
:100B70002046009500F084FE002876D194F83C00D1
:100B8000012872D0012084F83C0020680168C90760
:100B900003D1016841F0010101602068016821F47E
:100BA00000610160212084F83D00402084F83E006F
:100BB00000262664C4F82480A4F82A90608D20853D
:100BC0002C48E062CDE9007553465A462046049908
:100BD00000F0D6FD70B930E02A463946204600F0D4
:100BE000F5FE58B1206C042804D12068016841F456
:100BF00000710160012007B0BDE8F08F606A2168D4
:100C000000780861606A401C6062218D491E89B2CB
:100C10002185628D521E628522685369DB435B0722
:100C20000BD469B100781061606A401C6062208D4D
:100C3000401E2085608D401E6085208D0028CBD110
:100C40002A463946204600F0EFFD0028CAD154F864
:100C50003D0B016841F400710160202004F81E0979
:100C6000E67766770020C6E7FFE70220C3E70000CB
:100C7000020010000000FFFF10B586B000210091B7
:100C800001910291039100680F4988421AD10F4CDB
:100C9000A06940F00800A061A069694600F0080062
:100CA0000490C02000901220019003200390084877
:100CB000FFF786FDE06940F40010E061E06900F4B0
:100CC0000010049006B010BD005400400010024017
:100CD000000C01400248816802781144816070472D
:100CE00000000020074810B5016841F010010160C4
:100CF000032000F075F8002000F006F800F024F85A
:100D0000002010BD0020024070B50D4D04464FF488
:100D10007A712878B1FBF0F00A490968B1FBF0F06C
:100D200000F0E2FA48B9102C07D200222146501EEA
:100D300000F036F800206C6070BD012070BD00002E
:100D4000000000200C0000200C4808B5816941F02B
:100D500001018161816901F001010091C16941F0E6
:100D60008051C161C06900F0805000900448416822
:100D700021F0E06141F00071416008BD00100240C7
:100D800000000140002809DB00F01F020121914012
:100D90004009800000F1E020C0F800117047000019
:100DA000F0B40E4B1B680C46C3F30223C3F10705D6
:100DB000042D00D90425191D072901D2002300E0C4
:100DC000DB1E012606FA05F1491E214099409E408E
:100DD000761E16403143F0BC01F015B80CED00E072
:100DE000064900F0070208684FF6FF03184040EA82
:100DF0000220034A10430860704700000CED00E039
:100E00000000FA052DE9F0470F46050061D0434E7A
:100E1000306800F00700B84209D2306820F00700BF
:100E200038433060306800F00700B84251D128687C
:100E30003B4C810712D5400703D5606840F4E06061
:100E400060602878000703D5606840F460506060F7
:100E50006068A96820F0F000084360602878C00747
:100E600028D06868012810D02168022810D089078E
:100E700000292EDA616821F0030101436160FFF768
:100E800099FD804641F288390DE021688903EFE73A
:100E90008901EDE7FFF78EFDA0EB0801494502D976
:100EA0000320BDE8F0876068696800F00C00B0EBD3
:100EB000810FEFD1306800F00700B8420BD93068DD
:100EC00020F0070038433060306800F00700B84277
:100ED00001D00120E5E72878400705D56068E9687A
:100EE00020F4E060084360602878000706D5606859
:100EF000296920F4605040EAC100606000F03EF8CB
:100F00006168084AC1F30311515CC8400649086092
:100F100006480068FFF7F8FE0020C2E70020024004
:100F2000001002408E2700080C0000200400002062
:100F300001480068704700000C0000200448054983
:100F400000684968044AC1F30221515CC8407047F7
:100F50000C000020001002409E27000804480549AC
:100F600000684968044AC1F3C221515CC840704717
:100F70000C000020001002409E2700080E4A516815
:100F80000E4801F00C03042B11D0082B0FD10C4894
:100F9000C1F38343C903C05C0AD55168084AC1F351
:100FA0004041921E515C054A5043B0FBF1F070473E
:100FB00004494843704700000010024000127A00C4
:100FC0007E27000800093D002DE9F84F040070D08D
:100FD0002078C04DC00749D06868C0F3810001285F
:100FE00007D06868C0F38100022809D16868C0038F
:100FF00006D52868800339D560680028E7D035E039
:101000006068B0F5803F0BD010B1B0F5A02F11D0C3
:10101000286820F480302860286820F4802002E0CE
:10102000286840F480302860606890B1FFF7C2FC07
:1010300006460AE0286840F480202860F0E700BFF8
:10104000FFF7B8FC801B642873D828688003F7D5A5
:101050000CE0FFF7AFFC064605E000BFFFF7AAFC77
:10106000801B6428F0D828688003F7D420789A4E33
:1010700080074FF001094FF0000839D5686810F07B
:101080000C0F07D06868C0F38100022809D1686896
:10109000C00306D42868800714D52069012808D128
:1010A00010E02069B0B1C6F80090FFF783FC074656
:1010B00005E00AE1FFF77EFCC01B0228C4D82868BF
:1010C0008007F7D52868616920F0F80040EAC10080
:1010D00028600DE0C6F80080FFF76CFC074604E0CE
:1010E000FFF768FCC01B022823D828688007F7D4C4
:1010F000207800072CD57948A169D9B1C0F80090B3
:10110000FFF758FC074604E0FFF754FCC01B022819
:101110000FD8686A8007F7D571484FF4FA51006814
:10112000B0FBF1F0009000BF0098411E0091FAD290
:101130000EE080E0C0F80080FFF73CFC074604E0CA
:10114000FFF738FCC01B022875D8686A8007F7D4FF
:101150002078400760D5E8690027C00008D4E86916
:1011600040F08050E861E869012700F0805000906D
:101170005C480168C90513D40168834641F4807155
:101180000160FFF717FC824606E000BFFFF712FC84
:10119000A0EB0A0064284ED8DBF80000C005F5D5A6
:1011A000E06801280AD008B1052813D0286A20F089
:1011B00001002862286A20F0040002E0286A40F05A
:1011C00001002862E06841F2883B98B1FFF7F2FB2A
:1011D00082460BE0286A40F004002862EEE700BF78
:1011E000FFF7E8FBA0EB0A0159455AD8286A8007A7
:1011F000F6D50CE0FFF7DEFB824605E0FFF7DAFBF1
:10120000A0EB0A0159454CD8286A8007F6D41FB1D3
:10121000E86920F08050E861E06988B36968C1F34B
:101220008101022944D00228C6F8608004D0FFF76B
:10123000C1FB044638E034E0FFF7BCFB074604E09E
:10124000FFF7B8FBC01B02282BD828688001F7D411
:10125000206AB0F5803F05D16868A16820F40030AD
:1012600008436860D4E908010843696821F47411EF
:1012700008436860C6F86090FFF79CFB044606E0F0
:1012800025E000BFFFF796FB001B022809D828685D
:101290008001F7D51BE000BFFFF78CFB001B022885
:1012A00002D90320BDE8F88F28688001F4D40EE04D
:1012B0000128F7D06868226A00F48031914204D195
:1012C000616A00F47010884201D00120EAE7002032
:1012D000E8E7000000100240000042428004424261
:1012E0000C0000200070004010B5401EB0F1807F5F
:1012F00001D3012010BD4FF0E02460610F21601781
:1013000000F081FD0020A06107202061002010BDB9
:1013100070477047F8B5016804460868CA684B69A9
:1013200010F00F0F4FF0000559D003F0010602F442
:101330009077374365D0C10705D0D10503D5616CDF
:1013400041F001016164410705D5D90703D0616C03
:1013500041F002016164810705D5D90703D0616CB2
:1013600041F004016164010707D502F02001314317
:1013700003D0616C41F008016164616C00293AD0CE
:10138000800604D5900602D5204600F020FC206897
:101390004069616CC0F38010090700D460B3204637
:1013A00000F0EEFB20684069400621D5206814302B
:1013B00050E8001F21F0400140E80012002AF5D15A
:1013C000E06BA8B16D494163E06BFFF79BF9002822
:1013D00011D0E06B416B01B0BDE8F04008478306D7
:1013E0000FD593060DD52046BDE8F84000F0EFBBC1
:1013F0002046FFF78EFFF8BD2046FFF78AFF6564A1
:10140000F8BD266B2023012E7CD1C6067AD5D606E0
:1014100078D508684868009048694FF00206400691
:1014200040D5E16B086840680004000CE8D0A28D4C
:101430008242E5D9E085886920282DD020680C30CB
:1014400050E8001F21F4807140E80012002AF5D115
:101450002068143050E8001F21F0010140E800121C
:10146000002AF5D12068143050E8001F21F0400117
:1014700040E80012002AF5D184F842302563206844
:101480000C3050E8001F21F0100140E80012002A43
:10149000F5D1E06BFFF712F96663A08DE18D401A7C
:1014A00081B22AE0A08DE18D401A81B2E08D002842
:1014B000A6D00029A4D022680C3252E8000F20F4F4
:1014C000907042E80007002FF5D12068143050E8F2
:1014D000002F22F0010240E80027002FF5D184F808
:1014E0004230256320680C3050E8002F22F01002B3
:1014F00040E80023002BF5D166632046FFF708FF84
:10150000F8BDFFE705062BD5150629D594F841004F
:101510002128F5D1A068B0F5805F01D12069B0B174
:10152000206A411C2162216800784860E08C401EDE
:101530000004000CE084E3D12068C16821F0800140
:10154000C1602068C16841F04001C160D8E7206AED
:101550000088C0F308004860206A801C2062E5E72C
:101560004006CDD55006CBD5CA68204622F04002B1
:10157000CA6084F8413000F0EAF8C1E7711B000846
:1015800070B5040004D094F84100002510B106E0C5
:10159000012070BD84F84050204600F023F824203C
:1015A00084F841002068C16821F40051C1602046E0
:1015B00000F06EFB2068016921F490410161206810
:1015C000416921F02A0141612068C16841F400515C
:1015D000C1606564202084F8410084F8420065639E
:1015E000002070BD30B585B00024009401940294B1
:1015F00003940068184988422CD11848C16941F405
:101600008021C161C16901F480210491816941F0A7
:10161000080181618069124D00F0080004904FF4C8
:1016200080600090022001900320039069462846C4
:10163000FFF7C6F8E814CDE900046946284602948D
:10164000FFF7BEF8002211462720FFF7A9FB27204D
:10165000FFF798FB05B030BD004800400010024085
:10166000000C014090F84230202B01D0022070473E
:1016700021B11AB10023036300F066BB012070475B
:1016800010B50068074988420AD107490748FEF7A4
:10169000F2FFBDE81040012203490548FFF7E2BF11
:1016A00010BD0000004800403A0000202401002046
:1016B000CC0000202DE9F843044690F841001F4675
:1016C00016460D46202802D00220BDE8F8837DB1E1
:1016D00076B100206064212084F84100FFF76AF9A8
:1016E000A6848046E684A068B0F5805F02D003E05F
:1016F0000120EAE7206910B12E4600250EE0002601
:101700000CE08021204600F03AFBA0B9AEB116F8FB
:10171000010B21684860E08C401EE084E08C434669
:101720004FF0000200970028EBD14FF04001204617
:1017300000F025FB30B10320C7E735F8020BC0F3FA
:101740000800E6E7202084F841000020BDE770474C
:10175000FEE701684A69D24352050FD46FF48062F4
:101760004A61002140F8301F2022427381730269D0
:1017700042F00402026101730120704700207047AB
:101780002DE9F843044600680D46DDE90897016835
:101790009846164641F4807101604B4600224FF096
:1017A00001112046009700F06BF848B120680068EE
:1017B000C00502D54FF4007020640320BDE8F88313
:1017C000216805F0FE0008613B464A46154920465F
:1017D00000F09EF888B920684169806900903A4617
:1017E0004946204600F0F2F848B1206C042804D1A4
:1017F0002068016841F4007101600120DEE7F5B264
:10180000B8F1010F09D02168300A08613A4649460B
:10181000204600F0DBF80028E7D1206805610020B1
:10182000CCE700000200010070B516460D460446E4
:101830001EE02046FFF78DFF08B1012070BD681C37
:1018400016D0FFF7B7F8801BA84200D885B92068EA
:101850004069C04340070BD5002044F8300F2021D9
:101860006173A073216941F0200121612073E4E7D5
:1018700020684069C0434007DBD4002070BD0000F1
:101880002DE9F047984617460D460446C1F3074632
:10189000DDF820902AE000BFB8F1FF3F26D0FFF727
:1018A00089F8A0EB0901414502D8B8F1000F1DD11C
:1018B0002068012E16D0806925EA00000004000C83
:1018C00012D00020B84211D1002044F8300F20215E
:1018D0006173A073216941F020012161207301200F
:1018E000BDE8F0874069E7E70120EBE72068012EBB
:1018F0000AD0806925EA00000004000C06D0002010
:10190000B842C9D00020EBE74069F3E70120F7E7D0
:101910002DE9F047984616460D4604464FF000095B
:101920004FF0200AC1F3074723E020684069C04315
:10193000400515D42068016841F4007101602168F8
:101940006FF480604861C4F8309084F83DA084F85A
:101950003E90216C41F00401216484F83C9021E028
:10196000701C06D0FFF726F8A0EB0800B04203D8A1
:1019700016B1012F1FD021E02068012F15D08069FA
:1019800025EA00000004000C18D000BF44F8309F86
:1019900084F80DA084F80E90216941F020012161A6
:1019A00084F80C900120BDE8F087406925EA00002A
:1019B0000004000CEAD12068406901E020688069D9
:1019C00025EA00000004000CAFD1ECE770B5164624
:1019D0000D4604461EE02046FFF7BBFE08B101207D
:1019E00070BD681C16D0FEF7E5FF801BA84200D82A
:1019F00085B920684069C04300060BD5002044F833
:101A0000300F20216173A073216941F02001216111
:101A10002073E4E720684069C0430006DBD400205F
:101A200070BD00002DE9F04385B0002431480094DA
:101A3000019402940394816941F0100181618169EC
:101A400001F010010491816941F0200181618169F7
:101A500001F020010491816941F0040181618169F3
:101A600001F004010491816941F0080181618069FC
:101A7000DFF8848000F008004FF400550490002245
:101A800029464046FEF791FFDFF870904FF4E0479B
:101A9000002239464846FEF788FF009502260125B8
:101AA0000396CDE9015469464046FEF789FE4FF49E
:101AB00040408DE8310069464046FEF781FEFF2038
:101AC0008DE8310069460E48FEF77AFE48F20320A1
:101AD0008DE8310069464846FEF772FE009703968E
:101AE000CDE9015469464846FEF76AFE05B0BDE8F7
:101AF000F08300000010024000100140000C014083
:101B000000080140FEE7FEE770477047FFF7E2B8C4
:101B100030B58FB028216846FEF756FB14210AA87D
:101B2000FEF752FB01210804CDE9001000240294C5
:101B300002250491CDE907504FF4E0100990684662
:101B4000FFF742FA08B172B6FEE70F20CDE90A05A9
:101B50004FF48060CDE90C4002210AA80E94FFF7F3
:101B600051F9002801D072B6FEE70FB030BD7047C2
:101B700010B5406A0021C185C184FFF7CAFB10BDC2
:101B800001680C3151E8002F22F4907241E80023E3
:101B9000002BF5D10168143151E8002F22F0010229
:101BA00041E80023002BF5D1016B012909D101681F
:101BB0000C3151E8002F22F0100241E80023002BE5
:101BC000F5D1202180F8421000210163704708B54B
:101BD00090F84210222901D0022008BD82684FF4FB
:101BE00080539A4201D1016921B1816A9A421BD086
:101BF0004AB10AE00268816A5268C2F308020A80A8
:101C0000816A891C08E0026972B10268526802F0B8
:101C10007F020A70816A491C8162C18D491E0904D4
:101C2000090CC18503D01BE002685268F1E7016826
:101C3000CA6822F02002CA600168CA6822F4807271
:101C4000CA6001684A6922F001024A61202180F8D5
:101C5000421000214163026B012A03D0FFF710FDFF
:101C6000002008BD016301680C3151E8002F22F00B
:101C7000100241E80023002BF5D101680A68D20662
:101C800002D50A6849680091818DFFF741FBE7E7BB
:101C900070B5044600680169E26821F440511143BF
:101CA00001612169A0680843616908432168CA6825
:101CB00041F20C639A430243CA6020684169A269F9
:101CC00021F44071114341611E492068884202D1CC
:101CD000FFF744F901E0FFF731F900EBC00101EB38
:101CE0000012606864218000B2FBF0F3B3FBF1F3F3
:101CF0006FF018067343B2FBF0F5B2FBF0F605EB9C
:101D00008305322303EB0515B5FBF1F5B6FBF1F6C0
:101D100005F0F00505EB0615B2FBF0F6B2FBF0F0AE
:101D2000B0FBF1F06FF01802504306EB800003EBBC
:101D30000010B0FBF1F0216800F00F00284488602B
:101D400070BD00000038014081628285C28500219B
:101D50004164222180F84210016921B10168CA68FA
:101D600042F48072CA6001684A6942F001024A6125
:101D70000068C16841F02001C160002070472DE972
:101D8000F041984617460E460446069D27E0681C1B
:101D900025D02DB1FEF70EFEA0EB0800A8421ED9FB
:101DA00020680C3050E8001F21F4D07140E8001288
:101DB000002AF5D12068143050E8001F21F00101FD
:101DC00040E80012002AF5D1202084F8410084F870
:101DD0004200002084F840000320BDE8F081206824
:101DE000006836EA000004D00020B842CFD00020BE
:101DF000F3E70120F9E700000148FFF78BBA000084
:101E0000CC000020FEE70907090E002804DB00F1E2
:101E1000E02080F80014704700F00F0000F1E0208F
:101E200080F8141D704700002DE9F0470122DFF80B
:101E30006C8005461703002639464046FEF7B5FD7F
:101E400000244FF480494FF4004A00BF05F001021E
:101E500049464046FEF7A9FD0A20FEF73BFA00225C
:101E600039464046FEF7A1FD0A20FEF733FA5146F7
:101E70004046FEF795FD710841EAC010C6B2012246
:101E800039464046FEF791FD6D08641C082CDDD3F1
:101E90001420FEF71FFA3046BDE8F087000C014021
:101EA0002DE9F041FEF786FD904CE169401A0A28C1
:101EB00071D98F4F02213846FEF772FD00250028A8
:101EC0005DD0257101213846FEF76AFD00285AD001
:101ED0006571884E80213046FEF762FD002856D09D
:101EE000A57140213046FEF75BFD002856D0E57114
:101EF00020213046FEF754FDE0B325721021304614
:101F0000FEF74EFDB8B3657208213046FEF748FD76
:101F100090B3A57204213046FEF742FD68B3E57226
:101F200002213046FEF73CFD40B3257301213046C7
:101F3000FEF736FD80B365736F4E4FF400413046B7
:101F4000FEF72EFD48B3A5734FF480413046FEF7EF
:101F500027FD78B384F80F504FF400713846FEF730
:101F60001FFD40B3257420790528207840D920F042
:101F700001003FE016E019E01EE021E024E02079B6
:101F8000401C20719EE76079401C6071A1E7A07938
:101F9000401CA071A5E7A6E01AE01DE0E079401C16
:101FA000E071A5E7207A401C2072A7E7607A401C08
:101FB0006072A9E714E017E0A07A401CA072A9E7BC
:101FC000E07A401CE072ABE7207B401C2073ADE759
:101FD000607B401C6073AFE7A07B401CA073B3E73D
:101FE000E07B401CE073B7E7207C401C2074BAE71C
:101FF00040F00100207060790528207802D920F097
:10200000020001E040F002002070A079052820784D
:1020100002D920F0040001E040F004002070E079D3
:102020000528207802D920F0080001E040F00800DF
:102030002070207A0528207802D920F0100001E0D5
:1020400040F010002070607A0528207802D920F036
:10205000200001E040F020002070A07A05282078C0
:1020600002D920F0400001E040F040002070E07A0A
:102070000528207802D920F0800001E040F080009F
:102080002070207B0528607802D920F0010001E053
:1020900040F001006070607B0528607802D920F074
:1020A000040001E040F004006070A07B0528607827
:1020B00002D920F0080001E040F008006070E07BE9
:1020C0000528607802D920F0100001E040F01000EF
:1020D0006070207C0528607802D920F0200001E0A3
:1020E00040F020006070BDE8F08100002800002072
:1020F000000C014000080140001001404279FF211E
:10210000C82A01D9FE2102E0322A00D2FD2102793B
:10211000C82A02D901F0FB0106E0322A02D201F0FE
:10212000F70101E041F00C01C278C82A02D901F0A0
:10213000EF0106E0322A02D201F0DF0101E041F0B6
:1021400030018078C82802D901F0BF0070473228DA
:1021500002D201F07F00704741F0C00070470000DC
:102160002DE9F041204F04464FF40056002231463D
:102170003846FEF71AFC0120FFF756FE4220FFF713
:1021800053FE05460020FFF74FFE0020FFF74CFEF0
:1021900020700020FFF748FE6070732D03D0232DC0
:1021A00001D0532D0FD10020FFF73EFEA07000207C
:1021B000FFF73AFEE0700020FFF736FE20710020A6
:1021C000FFF732FE6071122D07D10020FFF72CFEC1
:1021D000A0700020FFF728FEE07031463846BDE8C9
:1021E000F0410122FEF7E1BB000C014010B50446AE
:1021F000FEF7E0FBA04203D9FEF7DCFB001B10BD9D
:10220000E143084410BD0000FEF76CFDFFF780FCC1
:10221000FFF708FC17481649002401601649C0E979
:1022200001144FF48041C0E9034144618461C461F9
:102230000462FEF7C5FB08B172B6FEE70D480F4910
:10224000543001604FF49641C0E901140C21C46080
:10225000C0E904418461C461FFF792F908B172B624
:10226000FEE700F00DF800BF00F044F8FCE70000C6
:102270000054004078000020A08601000048004083
:1022800010B5FEF705F800F06FF90F21084600F0D1
:10229000D3F911480123D0E9001210A000F058FA38
:1022A00000F0D0F910494FF480730122A1F1100021
:1022B000FEF7B0F901220D490D48FFF7D3F94FF4AD
:1022C000FA70FEF76BFA002000F03EF900F0BAF960
:1022D000BDE8104000F0D4B818000020506F7765BA
:1022E00072204F6E21000000340100203A000020CF
:1022F000CC0000207FB5002500950195029503953F
:10230000FFF7CEFD204C206AFFF770FF1E2829D36F
:102310006846FFF725FF6846FFF7F0FE06464620B1
:102320008DF808009DF800008DF809009DF8010067
:102330008DF80A0020788DF80B0060788DF80C007D
:102340008DF80D60C823062202A91048FFF7B2F9E4
:10235000BDF8090040BAA082A6700120E070FEF727
:1023600029FB2062606AFFF741FF642804D300F074
:102370000FF8FEF71FFB6062E078002802D0FDF73F
:10238000C1FFE5707FBD000028000020CC000020C8
:102390002DE9F0410F213748FDF716FF354C002598
:1023A000344861191030FEF747F900285FD06D1CE2
:1023B000EDB2032DF4D3207846280BD0442856D113
:1023C0006078452853D1A0784C2850D1002000F0E7
:1023D000BBF848E06078452849D1A078452846D127
:1023E0000025244861191030FEF726F900283ED058
:1023F0006D1CEDB2032DF4D32078A1783038C6B22D
:102400006078D022303800EB800002EB40000844B6
:10241000C7B20F211748FDF7D7FE002508E0154881
:1024200061191030FEF708F9002820D06D1CEDB2BC
:10243000BD42F4D3104C012E01D0022E08D002214F
:10244000002000F0F9F8D4E900120123094808E05F
:102450001C21002000F0F0F808480123D0E9001208
:10246000044800F075F9BDE8F04100F0EBB8BDE8B4
:10247000F08100001401002020000020180000203E
:1024800010B505210D4800F01BF805210B4800F0A0
:1024900017F80521094800F013F808480521401DE8
:1024A00000F00EF8054809210A3000F009F8034849
:1024B0000921BDE81040133000F002B8540000209C
:1024C0002DE9F041DFF83C800D4606464FF40057F9
:1024D000002239464046FEF768FA1020FDF7FAFE62
:1024E000002403E0305DFFF79FFC641CAC42F9DB85
:1024F0001020FDF7EFFE39464046BDE8F0410122CD
:10250000FEF753BA000C014070B5802813D2402961
:1025100011D20B4B012401F007051E79AC40094B89
:10252000C90800EBC1100EB132B101E0012A03D09D
:10253000195CA143195470BD195C2143FAE70000EE
:10254000700000203402002010B5064A00214FF42C
:10255000806328B1FF245454491C9942F9D310BD1B
:102560000024F8E73402002010B56420FEF716F9C5
:10257000AE2000F0DBF8202000F0D8F8102000F0AA
:10258000D5F8B02000F0D2F8C82000F0CFF8002035
:1025900000F0CCF8102000F0C9F8402000F0C6F898
:1025A000812000F0C3F8FF2000F0C0F8A12000F067
:1025B000BDF8A62000F0BAF8A82000F0B7F83F2038
:1025C00000F0B4F8A42000F0B1F8D32000F0AEF889
:1025D000002000F0ABF8D52000F0A8F8F02000F0C3
:1025E000A5F8D92000F0A2F8222000F09FF8DA2008
:1025F00000F09CF8122000F099F8DB2000F096F82B
:10260000202000F093F88D2000F090F8142000F0C6
:102610008DF8AF2000F08AF80020FFF795FF00F05A
:1026200011F80448002101804180012141710846D0
:1026300010BD000070000020014A108051807047DA
:1026400070000020FEB5002496250F4F802600BFA5
:1026500004F1B000C0B200F069F8002000F066F8A4
:10266000102000F063F807EBC410CDE90006012349
:102670004022782102950548FEF766FA641CE4B210
:10268000082CE5D3FEBD00003402002078000020B5
:102690002DE9FF4F834624489246CEB20288324449
:1026A000802A06D281464088C1F307273844402853
:1026B00003D3002004B0BDE8F08F002528E000BF60
:1026C000ABF1200000FB075000243AF810801CE01A
:1026D00008FA04F0000409D599F8021099F80000EE
:1026E00029442044C9B2C0B2039A0BE00398C0B198
:1026F0005FF0000299F8021099F800002944204484
:10270000C9B2C0B2FFF700FF641CA642E0D86D1C3E
:10271000AF42D5D8B9F8001058463144A9F8001096
:10272000C8E70122E6E700007000002001B584B090
:102730000121142204A88DE807000B46002278210D
:102740000248FEF701FA05B000BD00007800002045
:10275000F0B51D460E46174604460AE02B463A469B
:102760003146FFF795FF2178884201D0C8B2F0BD0D
:10277000641C20780028F1D1C0B2F0BD0102020330
:102780000405060708090A0B0C0D0E0F10100000B7
:102790000000000000000102030406070809000011
:1027A000000001020304000000000000000000001F
:1027B00000000000000000000000001000100010E9
:1027C00000100010001000000010000000000028A1
:1027D00000280028000000000000000000000000A9
:1027E000000000240024007C00240048007C0048F5
:1027F0000048000000000038005400500038001469
:10280000005400540038001000000020005400580C
:1028100000300028005400140008000000000010E0
:102820000028002800100034004800480034000050
:102830000000001000100010000000000000000068
:102840000000000000000008001000200020002010
:1028500000200020002000100008002000100008C8
:102860000008000800080008000800100020001000
:1028700000380010002800000000000000000000E8
:1028800000000000000000100010007C001000108C
:102890000000000000000000000000000000000038
:1028A00000000000001000100010000000000000F8
:1028B00000000000003800000000000000000000E0
:1028C00000000000000000000000000000100000F8
:1028D0000000000800080010001000100010002088
:1028E0000020000000000038004400440054004470
:1028F0000044004400380000000000100030005088
:10290000001000100010001000100000000000383F
:10291000004400440004000800100020007C000077
:1029200000000038004400040018000400040044C3
:1029300000380000000000080018002800280048A7
:10294000007C0008000800000000007C00400040FF
:102950000078000400040044003800000000003843
:102960000044004000780044004400440038000067
:102970000000007C0004000800100010002000206F
:1029800000200000000000380044004400380044EB
:1029900000440044003800000000003800440044B7
:1029A0000044003C00040044003800000000000027
:1029B00000000010000000000000000000100000F7
:1029C00000000000000000000010000000000000F7
:1029D00000100010001000000000000C003000404B
:1029E0000030000C000000000000000000000000AB
:1029F000007C0000007C00000000000000000000DF
:102A000000000060001800040018006000000000D2
:102A1000000000380044000400080010001000000E
:102A200000100000000000380044004C0054005C1E
:102A3000004000400038000000000010002800287E
:102A400000280028007C00440044000000000078BA
:102A50000044004400780044004400440078000032
:102A600000000038004400400040004000400044A6
:102A7000003800000000007000480044004400449A
:102A800000440048007000000000007C004000404E
:102A9000007C004000400040007C00000000007C02
:102AA000004000400078004000400040004000002E
:102AB00000000038004400400040005C0044004436
:102AC000003800000000004400440044007C004442
:102AD00000440044004400000000003800100010D2
:102AE000001000100010001000380000000000046A
:102AF0000004000400040004000400440038000046
:102B000000000044004800500060005000480048A9
:102B10000044000000000040004000400040004031
:102B200000400040007C000000000044006C006C8D
:102B300000540044004400440044000000000044ED
:102B40000064006400540054004C004C0044000039
:102B500000000038004400440044004400440044A5
:102B60000038000000000078004400440044007871
:102B700000400040004000000000003800440044D5
:102B80000044004400440054003800040000007871
:102B9000004400440044007800480048004400001D
:102BA00000000038004400400030000800040044E9
:102BB000003800000000007C001000100010001021
:102BC0000010001000100000000000440044004409
:102BD0000044004400440044003800000000004469
:102BE00000440044002800280028001000100000C5
:102BF000000000440044005400540054006C0028BD
:102C000000280000000000440028002800100010E8
:102C10000028002800440000000000440044002870
:102C20000028001000100010001000000000007CC0
:102C3000000400080010001000200040007C00008C
:102C4000000000180010001000100010001000100C
:102C500000100010001800200020001000100010CC
:102C600000100008000800000000003000100010F4
:102C700000100010001000100010001000300010B4
:102C800000280028004400000000000000000000B0
:102C90000000000000000000000000000000000034
:102CA0000000000000FE00200010000000000000F6
:102CB00000000000000000000000000000000038DC
:102CC0000044003C0044004C003400000000004080
:102CD00000400058006400440044006400580000B4
:102CE00000000000000000380044004000400044A4
:102CF000003800000000000400040034004C0044D0
:102D00000044004C003400000000000000000038C7
:102D10000044007C00400044003800000000000C2B
:102D20000010007C001000100010001000100000C7
:102D30000000000000000034004C00440044004C3F
:102D40000034000400780040004000580064004453
:102D50000044004400440000000000100000007027
:102D60000010001000100010001000000000001003
:102D70000000007000100010001000100010001083
:102D800000E0004000400048005000600050004853
:102D9000004400000000007000100010001000103F
:102DA000001000100010000000000000000000787B
:102DB000005400540054005400540000000000006F
:102DC0000000005800640044004400440044000037
:102DD00000000000000000380044004400440044AB
:102DE00000380000000000000000005800640044AB
:102DF000004400640058004000400000000000341F
:102E0000004C00440044004C003400040004000066
:102E100000000058006400400040004000400000F6
:102E200000000000000000380044003000080044AA
:102E30000038000000000020002000780020002062
:102E400000200020001800000000000000000044E6
:102E5000004400440044004C003400000000000026
:102E60000000004400440028002800280010000052
:102E7000000000000000005400540054006C0028C2
:102E8000002800000000000000000044002800109E
:102E90000010002800440000000000000000004472
:102EA00000440028002800100010001000600000FE
:102EB0000000007C0008001000200040007C0000A2
:102EC000000000180010001000100020002000106A
:102ED000001000100018001000100010001000106A
:102EE0000010001000100010001000300010001042
:102EF0000010000800080010001000100030000052
:102F0000000000000074004C000000000000000001
:102F100000000000000000000000000000000000B1
:102F200000000000000000000000000000000000A1
:102F30000000000000000000000C000C000C000C61
:102F4000000C000C000C000C000C000C000C00002D
:102F5000000C000C0000000000000000001B001B23
:102F6000001B001B001B0000000000000000000010
:102F70000000000000000000000000000000000051
:102F80008019801980198019C07FC07F8019003393
:102F9000C07FC07F003300330033003300000000E7
:102FA00000000000001E003F807580650074003C3A
:102FB000001E00078005806580658075003F001E4B
:102FC0000004000400000000007000D840D8C0D801
:102FD00080D900730006000C801BC036C066C04656
:102FE000C00680030000000000000000001E003F3B
:102FF000003300330033001E000CC03CC066806309
:1030000080618063C03E801C000000000000000062
:10301000000C000C000C000C000C00000000000074
:1030200000000000000000000000000000000000A0
:103030000000800000010003000600060004000CF0
:10304000000C000C000C000C000C00040006000634
:10305000000300018000002000100018000C000C8C
:103060000004000600060006000600060006000434
:10307000000C000C0018001000200000000C002DB7
:10308000003F001E003300000000000000000000B0
:103090000000000000000000000000000000000030
:1030A00000000000000C000C000C000CC0FFC0FF72
:1030B000000C000C000C000C0000000000000000E0
:1030C0000000000000000000000000000000000000
:1030D000000000000000000000000000000C000CD8
:1030E00000040004000800000000000000000000D0
:1030F0000000000000000000001E001E0000000094
:1031000000000000000000000000000000000000BF
:1031100000000000000000000000000000000000AF
:1031200000000000000C000C000000000000000087
:103130000003000300030006000600060006000C62
:10314000000C000C000C0018001800180000000013
:1031500000000000001E003F00338061806180613C
:10316000806D806D8061806180610033003F001E52
:1031700000000000000000000006000E001E0036E7
:1031800000260006000600060006000600060006EF
:10319000000600060000000000000000001E003FC6
:1031A000807380618061800100030006000C0018BC
:1031B00000300060807F807F000000000000000081
:1031C000001C003E006300630003000E000E0003BD
:1031D0008001800180618073003F001E00000000BC
:1031E000000000000006000E000E001E001E00166B
:1031F000003600360066807F807F000600060006ED
:103200000000000000000000007F007F0060006000
:103210000060006E007F80638001800180618073A8
:10322000003F001E0000000000000000001E003FE4
:10323000803380610060006E007F807380618061F8
:1032400080618033003F001E00000000000000008D
:10325000807F807F80010003000300060006000CD1
:10326000000C000C000800180018001800000000F6
:1032700000000000001E003F80638061806100212B
:10328000001E003F8061806180618061003F001E00
:103290000000000000000000001E003F007380617D
:1032A000806180618073803F801D80018061007338
:1032B000003F001E000000000000000000000000B1
:1032C00000000000000C000C0000000000000000E6
:1032D00000000000000C000C0000000000000000D6
:1032E00000000000000000000000000C000C0000C6
:1032F0000000000000000000000C000C00040004AE
:103300000008000000000000000080008003000EA4
:10331000003800600038000E8003800000000000CC
:10332000000000000000000000000000000000009D
:10333000807F807F00000000807F807F0000000091
:10334000000000000000000000000000000000007D
:10335000000000400070001C000780010007001CF6
:1033600000700040000000000000000000000000AD
:10337000001F803FC071C060C000C0018003000713
:10338000000E000C000C0000000C000C00000000FF
:1033900000000000001E003F803180718063806F5C
:1033A000806D806D806F806700600032003E001C81
:1033B0000000000000000000000E000E001B001BBB
:1033C000001B001B80318031803F803F8031C06016
:1033D000C060C0600000000000000000007C007EB3
:1033E0000063006300630063007E007E0063806111
:1033F00080618063007F007E00000000000000000C
:10340000001E003F8031806100600060006000604D
:103410000060006080618031003F001E00000000FD
:1034200000000000007C007F006380638061806199
:10343000806180618061806100630063007E007C48
:103440000000000000000000807F807F00600060BE
:1034500000600060007F007F00600060006000602E
:10346000807F807F0000000000000000807F807F60
:103470000060006000600060007F007F006000600E
:1034800000600060006000600000000000000000BC
:10349000001E003F8031806100600060006080633A
:1034A0008063806180618031803F001E00000000E9
:1034B00000000000806180618061806180618061C6
:1034C000807F807F806180618061806180618061B8
:1034D0000000000000000000003F003F000C000C56
:1034E000000C000C000C000C000C000C000C000C7C
:1034F000003F003F0000000000000000800180014C
:103500008001800180018001800180018001806153
:1035100080618073003F001E00000000000000007A
:10352000C0608061006300660066006C0078007C0B
:1035300000660066006380618061C060000000007A
:10354000000000000060006000600060006000603B
:10355000006000600060006000600060807F807F2D
:103560000000000000000000C071C071C07BC07A84
:10357000C06AC06AC06EC064C060C060C060C06025
:10358000C060C06000000000000000008071807119
:10359000807980798079806D806D806D80658067AD
:1035A0008067806780638063000000000000000087
:1035B000001E003F00338061806180618061806116
:1035C0008061806180610033003F001E00000000C8
:1035D00000000000007E007F806380618061806168
:1035E0008063007F007E006000600060006000601B
:1035F0000000000000000000001E003F003380615A
:103600008061806180618061806180658067003356
:10361000803F401E0000000000000000007E007F90
:103620008063806180618063007F007E006600634C
:10363000006380618061C060000000000000000045
:10364000000E001F8031803100300038001E00075E
:103650008003806180618031003F001E0000000017
:1036600000000000C0FFC0FF000C000C000C000CAC
:10367000000C000C000C000C000C000C000C000CEA
:1036800000000000000000008061806180618061B6
:103690008061806180618061806180618061807310
:1036A000003F001E0000000000000000C060C0607D
:1036B000C060803180318031001B001B001B001B6B
:1036C000000E000E000E00040000000000000000CC
:1036D000C0C0C0C0C0C0C0C0C0C0C0CC804C804C46
:1036E000805E8052805280738061806100000000A3
:1036F00000000000C0C0806080610033003B001EFD
:10370000000C000C001E001F003B80718061C0C0D7
:103710000000000000000000C0C080618061003334
:103720000033001E001E000C000C000C000C000CEE
:10373000000C000C0000000000000000803F803FF3
:103740008001000300030006000C000C00180018A4
:1037500000300060807F807F000000000000000FCC
:10376000000F000C000C000C000C000C000C000CF6
:10377000000C000C000C000C000C000C000C000FE6
:10378000000F0000001800180018000C000C000CBE
:10379000000C0006000600060006000300030003FC
:1037A000000000000000001E001E000600060006CB
:1037B00000060006000600060006000600060006D9
:1037C000000600060006001E001E0000000C000C93
:1037D000001E001200330033806180610000000091
:1037E00000000000000000000000000000000000D9
:1037F00000000000000000000000000000000000C9
:103800000000000000000000000000000000E0FFD9
:103810000000000000380018000C0000000000004C
:103820000000000000000000000000000000000098
:103830000000000000000000000000000000000088
:10384000001F803F80618001801F803F8061806316
:10385000807FC038000000000000000000600060B1
:1038600000600060006E007F807380618061806115
:1038700080618073007F006E000000000000000087
:103880000000000000000000001E003F8073806107
:103890000060006080618073003F001E0000000037
:1038A000000000008001800180018001801D803FB8
:1038B000807380618061806180618073803F801D42
:1038C00000000000000000000000000000000000F8
:1038D000001E003F00738061807F807F00608071E8
:1038E000003F001E0000000000000000C007C00FE5
:1038F000000C000C807F807F000C000C000C000C82
:10390000000C000C000C000C000000000000000087
:10391000000000000000801D803F80738061806196
:10392000806180618073803F801D80018063007FA3
:10393000003E00000060006000600060006F807F5B
:10394000807180618061806180618061806180615F
:10395000000000000000000000060006000000005B
:10396000003E003E000600060006000600060006B7
:10397000000600060000000000000006000600002F
:103980000000003E003E000600060006000600069D
:1039900000060006000600060046007E003C00000F
:1039A0000060006000600060806100630066006C81
:1039B000007C0076006300638061C060000000004E
:1039C00000000000003E003E000600060006000663
:1039D00000060006000600060006000600060006B7
:1039E00000000000000000000000000000000000D7
:1039F00080DDC0FFC0CEC0CCC0CCC0CCC0CCC0CC61
:103A0000C0CCC0CC0000000000000000000000009E
:103A100000000000006F807F8071806180618061A4
:103A20008061806180618061000000000000000012
:103A30000000000000000000001E003F8073806155
:103A40008061806180618073003F001E0000000083
:103A500000000000000000000000006E007F807386
:103A600080618061806180618073007F006E006092
:103A70000060006000600000000000000000801D89
:103A8000803F807380618061806180618073803F4E
:103A9000801D800180018001800100000000000085
:103AA000000000000067803F003900300030003027
:103AB0000030003000300030000000000000000046
:103AC0000000000000000000001E803F80610060D8
:103AD000007F803F80018061007F001E00000000A9
:103AE000000000000000000800180018007F007FA0
:103AF000001800180018001800180018801F800F08
:103B000000000000000000000000000000000000B5
:103B1000806180618061806180618061806180639B
:103B2000807F803D000000000000000000000000D9
:103B300000000000C060803180318031001B001B1C
:103B4000001B000E000E0006000000000000000038
:103B5000000000000000000080DD80DD80DD0055F9
:103B60000055005500770077002200220000000079
:103B70000000000000000000000000008061003331
:103B80000033001E000C000C001E00330033806167
:103B90000000000000000000000000000000806144
:103BA0008061803100330033001B001B001B000EBE
:103BB000000E000E001C007C0070000000000000E1
:103BC00000000000C07FC07F800100030006000CE1
:103BD00000180030C07FC07F00000000000080039C
:103BE000800700060006000600060006000E001C06
:103BF000001C000E000600060006000600068007F6
:103C00008003000600060006000600060006000607
:103C10000006000600060006000600060006000674
:103C20000006000600060038003C000C000C000CEA
:103C3000000C000C000E00070007000E000C000C2A
:103C4000000C000C000C003C0038000000000000DC
:103C500000000000000000008038807F0047000066
:103C60000000000000000000000000000000000054
:103C70000000000000000000000000000000000044
:103C80000000000000000000000000000000000034
:103C90000000000000000000000000000000000024
:103CA0000000E003E003E003E003E003E003E003DF
:103CB000E003C003C003C001C001C001C001C001D6
:103CC000000000000000E003E003E003000000004B
:103CD0000000000000003C1E3C1E3C1E3C1E3C1E22
:103CE0003C1E3C1E00000000000000000000000020
:103CF00000000000000000000000000000000000C4
:103D000000000000000000000000CE01CE03DE0332
:103D10009E039C039C07FF3FFF7F3807380F780FF7
:103D2000780F780EFFFFFFFFF01EF01CE01CE03C58
:103D3000E03DE03900000000000000000000FC034E
:103D4000FE0FEE1FE01EE01EE01EE01EE01FE00F73
:103D5000E007F003FC01FE01FE01FE01FE01FE0191
:103D6000FE01FE3DFC3FF00FE001E001000000001D
:103D70000000033E07F78FE78EE79EE3BCE3B8E75A
:103D8000F8E7F0F7E03FC001FF03FF07F307F30F89
:103D9000F31EF33CF338F3787FF03FE000000000BF
:103DA000000000000000E007F80F780F781F781F70
:103DB000781F780FF00FE00F801FC37FC3FBE7F37E
:103DC000F7F1F7F0FFF07FF03EF87F7CFF3FEF1F49
:103DD00000000000000000000000E003E003E0033A
:103DE000E003E003C003C001000000000000000089
:103DF00000000000000000000000000000000000C3
:103E000000000000000000000000000000003F0073
:103E10007C00F001E001C003C00780078007800F2D
:103E2000000F000F000F000F000F000F800F800722
:103E30008007C007C003E001F0017C003F000F00D5
:103E40000000007E001FC007C003E001F001F00089
:103E5000F000F800780078007800780078007800AA
:103E6000F800F000F000F001E001C003C007001FFF
:103E7000007E00780000E003C003C001CE39FF3FA0
:103E80007F3F20037003F807780F3C1F38060000BF
:103E90000000000000000000000000000000000022
:103EA0000000000000000000000000000000000012
:103EB000000000000000C001C001C001C001C0013D
:103EC000C001C001FFFFFFFFC001C001C001C00170
:103ED000C001C00100000000000000000000000060
:103EE00000000000000000000000000000000000D2
:103EF00000000000000000000000000000000000C2
:103F0000E003E003E003E003E001E001E001C001C1
:103F1000800300000000000000000000000000001E
:103F20000000000000000000FE3FFE3F0000000017
:103F30000000000000000000000000000000000081
:103F40000000000000000000000000000000000071
:103F50000000000000000000000000000000000061
:103F60000000000000000000E003E003E003E003C5
:103F7000000000000000000000000F000F001E0005
:103F80001E003C003C0078007800F000F000E001EA
:103F9000E001C003C00380078007000F000F001E70
:103FA000001E003C003C0078007800F00000F007A4
:103FB000F80F7C1F3E3E1E3C1F7C1F7C0F780F7845
:103FC0000F780F780F780F780F781F7C1F7C1E3CBE
:103FD0003E3E7C1FF80FF0070000000000000000CC
:103FE0000000F000F007F03FF03FF001F001F001B9
:103FF000F001F001F001F001F001F001F001F00139
:10400000F001F001F001F001FF3FFF3F0000000070
:10401000000000000000E00FF83F7C3C3C003E0048
:104020003E003E003C003C007C00F800F001E00354
:10403000C0078007000F001E003E003CFE3FFE3F11
:1040400000000000000000000000F00FF81F7C1CC2
:104050003E003E003E003C003C00F800F00FF80F30
:104060007C003E001E001E001E001E003E007C1C48
:10407000F81FE01F000000000000000000007800B2
:10408000F800F800F801F803F807F807780F781E31
:10409000781E783C78787878FFFFFFFF780078000A
:1040A0007800780078007800000000000000000030
:1040B0000000FC1FFC1FFC1F001E001E001E001E37
:1040C000001EE01FF81FFC007C003E003E001E00AA
:1040D0003E003E003C007C1CF81FE01F000000007A
:1040E000000000000000FC01FE078E0F001F001EF4
:1040F000003E003C003CF83DFC3F3E7F1F7E0F3CF5
:104100000F3C0F3C0F3C0F3E1F1E3E1FFC0FF003E9
:1041100000000000000000000000FF3FFF3FFF3FE5
:104120000F001E001E003C0038007800F000F00078
:10413000E001E001C003C0038007800F800F000F83
:10414000001F001F00000000000000000000F80732
:10415000FC0F3E1F1E1E1E3E1E3E1E1E3C1FF80F65
:10416000F007F80FFC1E3E3E1F3C1F7C0F7C0F7CAF
:104170001F3C3E3FFC1FF007000000000000000055
:104180000000F007F80F7C1E3E3C1E3C1F7C1F7C8D
:104190001F7C1F7C1F3C3F3EFF1FEF071F001E00C0
:1041A0001E003E003C00F838F03FE01F0000000019
:1041B00000000000000000000000000000000000FF
:1041C0000000E003E003E003E00300000000000063
:1041D0000000000000000000E003E003E003E00353
:1041E00000000000000000000000000000000000CF
:1041F000000000000000E003E003E003E003000033
:10420000000000000000000000000000E003E003E8
:10421000E003E003E001E001E001C00380030000EF
:104220000000000000000000000003000F003F003D
:10423000FC00F003C00F003F00FE003FC00FF00382
:10424000FC003F000F000300000000000000000021
:10425000000000000000000000000000000000005E
:10426000000000000000FFFFFFFF00000000000052
:10427000FFFFFFFF00000000000000000000000042
:10428000000000000000000000000000000000002E
:10429000000000E000F8007E801FE007F8017E00CB
:1042A0001F007E00F801E007801F007E00F800E09C
:1042B00000000000000000000000F01FFC3F3E383E
:1042C0001F381F381E001E003C007800F000E0017F
:1042D000C003C003C007C007000000000000C00703
:1042E000C007C00700000000000000000000F80345
:1042F000FE0F1E1F0F3E7F3CFF78EF79C773C7F399
:104300008FF38FF38FF39FF39FF3FF73FF7BF779A7
:10431000003C1C1FFC0FF803000000000000000020
:104320000000000000000000E003E003F007F007D9
:10433000F007780F780F7C0E3C1E3C1E3E3CFE3F83
:10434000FF3F1F780F780FF007F007F00000000024
:10435000000000000000000000000000F83FFC3FEB
:104360003E3C1E3C1E3C1E3C3E3C7C3CF03FF83F2D
:104370007E3C1F3C1F3C0F3C0F3C1F3CFE3FF83F68
:10438000000000000000000000000000000000002D
:10439000FF01FF07871F003E003C007C007800788B
:1043A000007800780078007C007C003E003F831F8E
:1043B000FF07FF01000000000000000000000000F7
:1043C00000000000F07FFC7F7E781F781F780F7858
:1043D0000F780F780F780F780F780F780F781F7895
:1043E0001E787E78F87FE07F00000000000000006B
:1043F0000000000000000000FF3FFF3F003E003EC5
:10440000003E003E003E003EFE3FFE3F003E003EBE
:10441000003E003E003E003EFF3FFF3F0000000028
:10442000000000000000000000000000FF1FFF1F50
:10443000001E001E001E001E001E001EFF1FFF1F8C
:10444000001E001E001E001E001E001E001E001E7C
:10445000000000000000000000000000000000005C
:10446000FE03FF0F871F003E007C007C007800F8F1
:1044700000F87FF87FF80F780F7C0F7C0F3E8F1FBE
:10448000FF0FFE030000000000000000000000001D
:10449000000000001F7C1F7C1F7C1F7C1F7C1F7C7A
:1044A0001F7C1F7CFF7FFF7F1F7C1F7C1F7C1F7C6E
:1044B0001F7C1F7C1F7C1F7C000000000000000090
:1044C0000000000000000000FF3FFF3FE003E003AA
:1044D000E003E003E003E003E003E003E003E003C4
:1044E000E003E003E003E003FF3FFF3F00000000C4
:1044F000000000000000000000000000FC1FFC1F86
:104500007C007C007C007C007C007C007C007C00CB
:104510007C007C007C0078007800F838F03FC03FD9
:10452000000000000000000000000000000000008B
:104530001F3C1E3C3C3C783CF03CE03DE03FC03F33
:10454000803FC03FE03FF03DF03C783C7C3C3E3C4F
:104550001F3C0F3C000000000000000000000000B5
:1045600000000000003E003E003E003E003E003ED7
:10457000003E003E003E003E003E003E003E003E4B
:10458000003E003EFF3FFF3F000000000000000033
:1045900000000000000000001FF81FFC1FFC3FFE91
:1045A0003FFE3FFE7FFF77FF77FFF7F7E7F7E7F381
:1045B000E7F3C7F307F007F007F007F0000000008B
:1045C0000000000000000000000000000F7C0F7CD5
:1045D0000F7E0F7F0F7F8F7F8F7FCF7FEF7BEF79F6
:1045E000FF79FF78FF787F783F783F781F781F78D2
:1045F00000000000000000000000000000000000BB
:10460000F007FC1F3E3E1F7C0F780F780FF80FF865
:104610000FF80FF80FF80FF80F780F781F7C3E3E59
:10462000FC1FF00700000000000000000000000078
:1046300000000000FC3FFF3F1F3E0F3E0F3E0F3EBD
:104640000F3E1F3E3F3EFC3FF03F003E003E003E1F
:10465000003E003E003E003E000000000000000062
:104660000000000000000000F007FC1F3E3E1F7C21
:104670000F780F780FF80FF80FF80FF80FF80FF802
:104680000F780F781F7C3E3EFC1FF8077C003F0030
:104690000F0003000000000000000000F03FFC3F9E
:1046A0007E3C3E3C1E3C1E3C3E3C3C3CFC3CF03FC9
:1046B000E03FF03DF83C7C3C3E3C1E3C1F3C0F3C48
:1046C00000000000000000000000000000000000EA
:1046D000FC07FE1F0E3E003C003C003C003EC01F9D
:1046E000F80FFE037F001F000F000F001F203E3C4D
:1046F000FC3FF01F00000000000000000000000070
:1047000000000000FFFFFFFFE003E003E003E00321
:10471000E003E003E003E003E003E003E003E00381
:10472000E003E003E003E0030000000000000000FD
:1047300000000000000000000F7C0F7C0F7C0F7C4D
:104740000F7C0F7C0F7C0F7C0F7C0F7C0F7C0F7C11
:104750000F7C1E3C1E3C3E3EFC1FF007000000008C
:1047600000000000000000000000000007F007F05B
:1047700007F80F780F7C1E3C1E3C1E3E3C1E3C1F63
:10478000781F780FF80FF007F007F007E003E00359
:104790000000000000000000000000000000000019
:1047A00003E003F003F007F0E7F3E7F3E7F3E77361
:1047B000F77BF77FFF7F7F7F7F7F7E7F7E3F3E3E61
:1047C0003E3E3E3E000000000000000000000000F1
:1047D0000000000007F80F7C1E3E3E3E3C1FF80F15
:1047E000F007E007E003E003F007F80F7C0F7C1E02
:1047F0003E3C1F780F780FF0000000000000000022
:10480000000000000000000007F807780F7C1E3C45
:104810001E3E3C1F780FF80FF007E003E003E003B3
:10482000E003E003E003E003E003E0030000000036
:10483000000000000000000000000000FF7FFF7F7C
:104840000F001F003E007C00F800F000E001E003D4
:10485000C007800F000F001E003E007CFF7FFF7F1F
:1048600000000000000000000000FF078007800734
:104870008007800780078007800780078007800700
:1048800080078007800780078007800780078007F0
:104890008007800780078007FF07FF070000007878
:1048A0000078003C003C001E001E000F000F800737
:1048B0008007C003C003E001E001F000F0007800D1
:1048C00078003C003C001E001E000F000F00070097
:1048D0000000F07FF000F000F000F000F000F000C9
:1048E000F000F000F000F000F000F000F000F00048
:1048F000F000F000F000F000F000F000F000F00038
:10490000F07FF07F0000C000C001C001E003E003C1
:10491000F007F0077807780F380F3C1E3C1E1E3C4E
:104920001E3C0F380F7807780000000000000000E0
:104930000000000000000000000000000000000077
:104940000000000000000000000000000000000067
:104950000000000000000000000000000000000057
:1049600000000000FFFFFFFF000000000000F0005B
:104970000000000000000000000000000000000037
:104980000000000000000000000000000000000027
:104990000000000000000000000000000000000017
:1049A0000000000000000000000000000000F80F00
:1049B000FC3F7C3C3E003E003E00FE07FE1F3E3EAC
:1049C0003E7C3E783E7C7E7CFF3FCF1F0000000097
:1049D000000000000000003C003C003C003C003CAB
:1049E000003CF83DFE3F3E3F1F3E0F3C0F3C0F3C5E
:1049F0000F3C0F3C0F3C1F3C1E3C3E3FFC3FF03B3E
:104A000000000000000000000000000000000000A6
:104A1000000000000000FE03FF0F871F003E003E65
:104A2000003C007C007C007C003C003E003E871F78
:104A3000FF0FFE03000000000000000000001F0048
:104A40001F001F001F001F001F00FF07FF1F3F3E2A
:104A50001F3C1F7C1F7C1F7C1F781F781F7C1F7CC6
:104A60003F3C7F3EFF1FDF0F000000000000000002
:104A70000000000000000000000000000000F8033B
:104A8000FC0F3E1F1E3E1F3C1F7CFF7FFF7F007CF4
:104A9000007C003C003E071FFF0FFE0300000000EB
:104AA000000000000000FF01E103C003C007C007D1
:104AB000C007FF7FFF7FC007C007C007C007C00750
:104AC000C007C007C007C007C007C007C007C007AE
:104AD00000000000000000000000000000000000D6
:104AE000000000000000EF07FF1F7F3E1F3C1F7CFF
:104AF0001F7C1F781F781F781F7C1F7C3F3C7F3EE8
:104B0000FF1FDF0F1E001E001E007C38F83F003C18
:104B1000003C003C003C003C003CFC3DFE3F9E3F16
:104B20001F3F1F3E1F3C1F3C1F3C1F3C1F3C1F3CA8
:104B30001F3C1F3C1F3C1F3C000000000000000009
:104B40000000F001F0010000000000000000E07F24
:104B5000E07FE001E001E001E001E001E001E001CF
:104B6000E001E001E001E001E001E00100000000FF
:104B7000000000000000F800F80000000000000045
:104B80000000F83FF83FF800F800F800F800F800DF
:104B9000F800F800F800F800F800F800F800F80055
:104BA000F800F800F000F071E07F003C003C003CB1
:104BB000003C003C003C1F3C3E3C7C3CF83CF03D53
:104BC000E03DC03FC03FE03FF03DF83C7C3C3E3C18
:104BD0001F3C1F3C00000000000000000000F07FB0
:104BE000F001F001F001F001F001F001F001F0013D
:104BF000F001F001F001F001F001F001F001F0012D
:104C0000F001F001F001F0010000000000000000E0
:104C100000000000000000000000000000009EF7FF
:104C2000FFFFFFFFFFFFE7FBE7F9C7F1C7F1C7F1A0
:104C3000C7F1C7F1C7F1C7F1C7F1C7F10000000024
:104C40000000000000000000000000000000000064
:104C50000000FC3DFE3F9E3F1F3F1F3E1F3C1F3C90
:104C60001F3C1F3C1F3C1F3C1F3C1F3C1F3C1F3C6C
:104C70000000000000000000000000000000000034
:104C8000000000000000F007FC1F3E3E1F3C1F7CA0
:104C90000F780F780F780F780F781F7C1F3C3E3EFF
:104CA000FC1FF007000000000000000000000000F2
:104CB00000000000000000000000F83DFE3F3E3F05
:104CC0001F3E0F3C0F3C0F3C0F3C0F3C0F3C1F3C6A
:104CD0001E3E3E3FFC3FF83F003C003C003C003C99
:104CE000003C000000000000000000000000EE0793
:104CF000FE1F7E3E1E3C1E7C1E781E781E781E788F
:104D00001E781E7C3E7C7E3EFE1FDE0F1E001E00B7
:104D10001E001E001E000000000000000000000039
:104D200000007F1FFF1FE71FC71F871F001F001FF7
:104D3000001F001F001F001F001F001F001F001F7B
:104D40000000000000000000000000000000000063
:104D5000000000000000FC07FE1F0E1E003E003E8B
:104D6000003FE01FFC07FE003E001E001E003E3C10
:104D7000FC3FF01F000000000000000000000000E9
:104D800000000000800780078007FF7FFF7F80070B
:104D900080078007800780078007800780078007DB
:104DA0008007C007FF03FF010000000000000000B3
:104DB00000000000000000000000000000001E3C99
:104DC0001E3C1E3C1E3C1E3C1E3C1E3C1E3C1E3C13
:104DD0001E3C3E3C7E3CFE3EFE1FDE0F00000000FF
:104DE00000000000000000000000000000000000C3
:104DF000000007F00F780F781E3C1E3C1E3E3C1E44
:104E00003C1E780F780FF00FF007F007E003E00387
:104E10000000000000000000000000000000000092
:104E200000000000000003F0E3F1E3F3E7F3F7F321
:104E3000F7F3F77F777F7F7F7F7F7F7F3E3E3E3E2A
:104E40003E3E3E3E0000000000000000000000006A
:104E5000000000000000000000000F7C1E3E3C3EF1
:104E60003C1FF80FF007F007E003F007F807F80F12
:104E70007C1E3E3E1F3C1F7800000000000000002A
:104E8000000000000000000000000000000007F823
:104E90000F780F7C1E3C1E3C3C1E3C1E3C1F780FB6
:104EA000F80FF007F007E003E003C003C003C003FE
:104EB0008007800F007F000000000000000000005D
:104EC0000000FF3FFF3F1F003E007C00F800F001A4
:104ED000E003C007800F001F001E003CFF7FFF7F24
:104EE00000000000000000000000FE01E003C0031D
:104EF000C003C003C003E001E001E001C001C00342
:104F0000803F803FC003C001E001E001E001C00339
:104F1000C003C003C003E003FE017E000000C00127
:104F2000C001C001C001C001C001C001C001C00179
:104F3000C001C001C001C001C001C001C001C00169
:104F4000C001C001C001C001C001C001C001C00159
:104F50000000C03FE003E001E001E001E001C0012A
:104F6000C003C003C001E001FE00FE00E001C0017B
:104F7000C003C003C001E001E001E001E001E00383
:104F8000C03F003F000000000000000000000000E3
:104F9000000000000000000000000000073FC77F85
:104FA000E773FFF17EF00000000000000000000049
:104FB000000000000000000000000000DC4F0008BE
:104FC000000000207800000028010008545000086C
:104FD00078000020200C00004401000801000000BF
:104FE00010000000000000000024F400070A000088
:104FF000A62700080B120000122F0008101A00004C
:105000006E3C0008FFFFFF000000000000000000F1
:105010000000000000000000FFFF00003C00002036
:105020000000000000000000000000000000000080
:10503000014200000001430001000144000103009F
:10504000000000014300005A5A5A5A5A000000005A
:04505000000000005C
:04000005080000ED02
:00000001FF
